{
	"demo/demo05.sol": {
		"ValueOps": {
			"abi": [
				{
					"inputs": [],
					"name": "updates",
					"outputs": [
						{
							"internalType": "uint256",
							"name": "",
							"type": "uint256"
						}
					],
					"stateMutability": "pure",
					"type": "function"
				}
			],
			"devdoc": {
				"kind": "dev",
				"methods": {},
				"version": 1
			},
			"evm": {
				"assembly": "    /* \"demo/demo05.sol\":57:273  contract ValueOps {... */\n  mstore(0x40, 0x80)\n  callvalue\n  dup1\n  iszero\n  tag_1\n  jumpi\n  0x00\n  dup1\n  revert\ntag_1:\n  pop\n  dataSize(sub_0)\n  dup1\n  dataOffset(sub_0)\n  0x00\n  codecopy\n  0x00\n  return\nstop\n\nsub_0: assembly {\n        /* \"demo/demo05.sol\":57:273  contract ValueOps {... */\n      mstore(0x40, 0x80)\n      callvalue\n      dup1\n      iszero\n      tag_1\n      jumpi\n      0x00\n      dup1\n      revert\n    tag_1:\n      pop\n      jumpi(tag_2, lt(calldatasize, 0x04))\n      shr(0xe0, calldataload(0x00))\n      dup1\n      0x68a82ef6\n      eq\n      tag_3\n      jumpi\n    tag_2:\n      0x00\n      dup1\n      revert\n        /* \"demo/demo05.sol\":86:198  function updates() external pure returns(uint){... */\n    tag_3:\n      tag_4\n      tag_5\n      jump\t// in\n    tag_4:\n      mload(0x40)\n      tag_6\n      swap2\n      swap1\n      tag_7\n      jump\t// in\n    tag_6:\n      mload(0x40)\n      dup1\n      swap2\n      sub\n      swap1\n      return\n    tag_5:\n        /* \"demo/demo05.sol\":127:131  uint */\n      0x00\n        /* \"demo/demo05.sol\":142:148  uint a */\n      dup1\n        /* \"demo/demo05.sol\":151:154  123 */\n      0x7b\n        /* \"demo/demo05.sol\":142:154  uint a = 123 */\n      swap1\n      pop\n        /* \"demo/demo05.sol\":164:173  update(a) */\n      tag_9\n        /* \"demo/demo05.sol\":171:172  a */\n      dup2\n        /* \"demo/demo05.sol\":164:170  update */\n      tag_10\n        /* \"demo/demo05.sol\":164:173  update(a) */\n      jump\t// in\n    tag_9:\n        /* \"demo/demo05.sol\":190:191  a */\n      dup1\n        /* \"demo/demo05.sol\":183:191  return a */\n      swap2\n      pop\n      pop\n        /* \"demo/demo05.sol\":86:198  function updates() external pure returns(uint){... */\n      swap1\n      jump\t// out\n        /* \"demo/demo05.sol\":204:270  function update(uint value) internal pure {... */\n    tag_10:\n        /* \"demo/demo05.sol\":260:263  456 */\n      0x01c8\n        /* \"demo/demo05.sol\":252:263  value = 456 */\n      swap1\n      pop\n        /* \"demo/demo05.sol\":204:270  function update(uint value) internal pure {... */\n      pop\n      jump\t// out\n        /* \"#utility.yul\":7:84   */\n    tag_12:\n        /* \"#utility.yul\":44:51   */\n      0x00\n        /* \"#utility.yul\":73:78   */\n      dup2\n        /* \"#utility.yul\":62:78   */\n      swap1\n      pop\n        /* \"#utility.yul\":7:84   */\n      swap2\n      swap1\n      pop\n      jump\t// out\n        /* \"#utility.yul\":90:208   */\n    tag_13:\n        /* \"#utility.yul\":177:201   */\n      tag_17\n        /* \"#utility.yul\":195:200   */\n      dup2\n        /* \"#utility.yul\":177:201   */\n      tag_12\n      jump\t// in\n    tag_17:\n        /* \"#utility.yul\":172:175   */\n      dup3\n        /* \"#utility.yul\":165:202   */\n      mstore\n        /* \"#utility.yul\":90:208   */\n      pop\n      pop\n      jump\t// out\n        /* \"#utility.yul\":214:436   */\n    tag_7:\n        /* \"#utility.yul\":307:311   */\n      0x00\n        /* \"#utility.yul\":345:347   */\n      0x20\n        /* \"#utility.yul\":334:343   */\n      dup3\n        /* \"#utility.yul\":330:348   */\n      add\n        /* \"#utility.yul\":322:348   */\n      swap1\n      pop\n        /* \"#utility.yul\":358:429   */\n      tag_19\n        /* \"#utility.yul\":426:427   */\n      0x00\n        /* \"#utility.yul\":415:424   */\n      dup4\n        /* \"#utility.yul\":411:428   */\n      add\n        /* \"#utility.yul\":402:408   */\n      dup5\n        /* \"#utility.yul\":358:429   */\n      tag_13\n      jump\t// in\n    tag_19:\n        /* \"#utility.yul\":214:436   */\n      swap3\n      swap2\n      pop\n      pop\n      jump\t// out\n\n    auxdata: 0xa26469706673582212201e80bccb512ad826d0d8daaa3120f398d07c465d43855b6a25f4c5d4d66c8dae64736f6c634300081a0033\n}\n",
				"bytecode": {
					"linkReferences": {},
					"object": "6080604052348015600e575f80fd5b5060c380601a5f395ff3fe6080604052348015600e575f80fd5b50600436106026575f3560e01c806368a82ef614602a575b5f80fd5b60306044565b604051603b91906076565b60405180910390f35b5f80607b90506051816058565b8091505090565b6101c8905050565b5f819050919050565b6070816060565b82525050565b5f60208201905060875f8301846069565b9291505056fea26469706673582212201e80bccb512ad826d0d8daaa3120f398d07c465d43855b6a25f4c5d4d66c8dae64736f6c634300081a0033",
					"opcodes": "PUSH1 0x80 PUSH1 0x40 MSTORE CALLVALUE DUP1 ISZERO PUSH1 0xE JUMPI PUSH0 DUP1 REVERT JUMPDEST POP PUSH1 0xC3 DUP1 PUSH1 0x1A PUSH0 CODECOPY PUSH0 RETURN INVALID PUSH1 0x80 PUSH1 0x40 MSTORE CALLVALUE DUP1 ISZERO PUSH1 0xE JUMPI PUSH0 DUP1 REVERT JUMPDEST POP PUSH1 0x4 CALLDATASIZE LT PUSH1 0x26 JUMPI PUSH0 CALLDATALOAD PUSH1 0xE0 SHR DUP1 PUSH4 0x68A82EF6 EQ PUSH1 0x2A JUMPI JUMPDEST PUSH0 DUP1 REVERT JUMPDEST PUSH1 0x30 PUSH1 0x44 JUMP JUMPDEST PUSH1 0x40 MLOAD PUSH1 0x3B SWAP2 SWAP1 PUSH1 0x76 JUMP JUMPDEST PUSH1 0x40 MLOAD DUP1 SWAP2 SUB SWAP1 RETURN JUMPDEST PUSH0 DUP1 PUSH1 0x7B SWAP1 POP PUSH1 0x51 DUP2 PUSH1 0x58 JUMP JUMPDEST DUP1 SWAP2 POP POP SWAP1 JUMP JUMPDEST PUSH2 0x1C8 SWAP1 POP POP JUMP JUMPDEST PUSH0 DUP2 SWAP1 POP SWAP2 SWAP1 POP JUMP JUMPDEST PUSH1 0x70 DUP2 PUSH1 0x60 JUMP JUMPDEST DUP3 MSTORE POP POP JUMP JUMPDEST PUSH0 PUSH1 0x20 DUP3 ADD SWAP1 POP PUSH1 0x87 PUSH0 DUP4 ADD DUP5 PUSH1 0x69 JUMP JUMPDEST SWAP3 SWAP2 POP POP JUMP INVALID LOG2 PUSH5 0x6970667358 0x22 SLT KECCAK256 0x1E DUP1 0xBC 0xCB MLOAD 0x2A 0xD8 0x26 0xD0 0xD8 0xDA 0xAA BALANCE KECCAK256 RETURN SWAP9 0xD0 PUSH29 0x465D43855B6A25F4C5D4D66C8DAE64736F6C634300081A003300000000 "
				},
				"gasEstimates": {
					"creation": {
						"codeDepositCost": "39000",
						"executionCost": "91",
						"totalCost": "39091"
					},
					"external": {
						"updates()": "360"
					},
					"internal": {
						"update(uint256)": "19"
					}
				},
				"methodIdentifiers": {
					"updates()": "68a82ef6"
				}
			},
			"storageLayout": {
				"storage": [],
				"types": null
			},
			"userdoc": {
				"kind": "user",
				"methods": {},
				"version": 1
			}
		}
	}
}