{
	"demo/demo12.sol": {
		"CalcInterfaceId": {
			"abi": [
				{
					"inputs": [],
					"name": "bar",
					"outputs": [
						{
							"internalType": "bool",
							"name": "",
							"type": "bool"
						}
					],
					"stateMutability": "pure",
					"type": "function"
				},
				{
					"inputs": [],
					"name": "calcId",
					"outputs": [
						{
							"internalType": "bytes4",
							"name": "",
							"type": "bytes4"
						}
					],
					"stateMutability": "pure",
					"type": "function"
				},
				{
					"inputs": [],
					"name": "foo",
					"outputs": [
						{
							"internalType": "uint256",
							"name": "",
							"type": "uint256"
						}
					],
					"stateMutability": "pure",
					"type": "function"
				},
				{
					"inputs": [],
					"name": "getId",
					"outputs": [
						{
							"internalType": "bytes4",
							"name": "",
							"type": "bytes4"
						}
					],
					"stateMutability": "pure",
					"type": "function"
				},
				{
					"inputs": [
						{
							"internalType": "bytes4",
							"name": "interfaceId",
							"type": "bytes4"
						}
					],
					"name": "supportsInterface",
					"outputs": [
						{
							"internalType": "bool",
							"name": "",
							"type": "bool"
						}
					],
					"stateMutability": "pure",
					"type": "function"
				}
			],
			"devdoc": {
				"kind": "dev",
				"methods": {
					"supportsInterface(bytes4)": {
						"details": "Returns true if this contract implements the interface defined by `interfaceId`. See the corresponding https://eips.ethereum.org/EIPS/eip-165#how-interfaces-are-identified[ERC section] to learn more about how these ids are created. This function call must use less than 30 000 gas."
					}
				},
				"version": 1
			},
			"evm": {
				"assembly": "    /* \"demo/demo12.sol\":240:1122  contract CalcInterfaceId is MyInterface, IERC165 {... */\n  mstore(0x40, 0x80)\n  callvalue\n  dup1\n  iszero\n  tag_1\n  jumpi\n  0x00\n  dup1\n  revert\ntag_1:\n  pop\n  dataSize(sub_0)\n  dup1\n  dataOffset(sub_0)\n  0x00\n  codecopy\n  0x00\n  return\nstop\n\nsub_0: assembly {\n        /* \"demo/demo12.sol\":240:1122  contract CalcInterfaceId is MyInterface, IERC165 {... */\n      mstore(0x40, 0x80)\n      callvalue\n      dup1\n      iszero\n      tag_1\n      jumpi\n      0x00\n      dup1\n      revert\n    tag_1:\n      pop\n      jumpi(tag_2, lt(calldatasize, 0x04))\n      shr(0xe0, calldataload(0x00))\n      dup1\n      0x01ffc9a7\n      eq\n      tag_3\n      jumpi\n      dup1\n      0x5d1ca631\n      eq\n      tag_4\n      jumpi\n      dup1\n      0xc2985578\n      eq\n      tag_5\n      jumpi\n      dup1\n      0xe897de0a\n      eq\n      tag_6\n      jumpi\n      dup1\n      0xfebb0f7e\n      eq\n      tag_7\n      jumpi\n    tag_2:\n      0x00\n      dup1\n      revert\n        /* \"demo/demo12.sol\":747:886  function supportsInterface(bytes4 interfaceId) external pure returns(bool) {... */\n    tag_3:\n      tag_8\n      0x04\n      dup1\n      calldatasize\n      sub\n      dup2\n      add\n      swap1\n      tag_9\n      swap2\n      swap1\n      tag_10\n      jump\t// in\n    tag_9:\n      tag_11\n      jump\t// in\n    tag_8:\n      mload(0x40)\n      tag_12\n      swap2\n      swap1\n      tag_13\n      jump\t// in\n    tag_12:\n      mload(0x40)\n      dup1\n      swap2\n      sub\n      swap1\n      return\n        /* \"demo/demo12.sol\":334:430  function getId() external pure returns(bytes4) {... */\n    tag_4:\n      tag_14\n      tag_15\n      jump\t// in\n    tag_14:\n      mload(0x40)\n      tag_16\n      swap2\n      swap1\n      tag_17\n      jump\t// in\n    tag_16:\n      mload(0x40)\n      dup1\n      swap2\n      sub\n      swap1\n      return\n        /* \"demo/demo12.sol\":936:1003  function foo() external pure returns(uint256) {... */\n    tag_5:\n      tag_18\n      tag_19\n      jump\t// in\n    tag_18:\n      mload(0x40)\n      tag_20\n      swap2\n      swap1\n      tag_21\n      jump\t// in\n    tag_20:\n      mload(0x40)\n      dup1\n      swap2\n      sub\n      swap1\n      return\n        /* \"demo/demo12.sol\":536:666  function calcId() external pure returns(bytes4) {... */\n    tag_6:\n      tag_22\n      tag_23\n      jump\t// in\n    tag_22:\n      mload(0x40)\n      tag_24\n      swap2\n      swap1\n      tag_17\n      jump\t// in\n    tag_24:\n      mload(0x40)\n      dup1\n      swap2\n      sub\n      swap1\n      return\n        /* \"demo/demo12.sol\":1053:1120  function bar() external pure returns(bool) {... */\n    tag_7:\n      tag_25\n      tag_26\n      jump\t// in\n    tag_25:\n      mload(0x40)\n      tag_27\n      swap2\n      swap1\n      tag_13\n      jump\t// in\n    tag_27:\n      mload(0x40)\n      dup1\n      swap2\n      sub\n      swap1\n      return\n        /* \"demo/demo12.sol\":747:886  function supportsInterface(bytes4 interfaceId) external pure returns(bool) {... */\n    tag_11:\n        /* \"demo/demo12.sol\":816:820  bool */\n      0x00\n        /* \"demo/demo12.sol\":851:880  type(MyInterface).interfaceId */\n      0x3c235a0600000000000000000000000000000000000000000000000000000000\n        /* \"demo/demo12.sol\":836:880  interfaceId == type(MyInterface).interfaceId */\n      not(0xffffffffffffffffffffffffffffffffffffffffffffffffffffffff)\n      and\n        /* \"demo/demo12.sol\":836:847  interfaceId */\n      dup3\n        /* \"demo/demo12.sol\":836:880  interfaceId == type(MyInterface).interfaceId */\n      not(0xffffffffffffffffffffffffffffffffffffffffffffffffffffffff)\n      and\n      eq\n        /* \"demo/demo12.sol\":829:880  return interfaceId == type(MyInterface).interfaceId */\n      swap1\n      pop\n        /* \"demo/demo12.sol\":747:886  function supportsInterface(bytes4 interfaceId) external pure returns(bool) {... */\n      swap2\n      swap1\n      pop\n      jump\t// out\n        /* \"demo/demo12.sol\":334:430  function getId() external pure returns(bytes4) {... */\n    tag_15:\n        /* \"demo/demo12.sol\":373:379  bytes4 */\n      0x00\n        /* \"demo/demo12.sol\":395:424  type(MyInterface).interfaceId */\n      0x3c235a0600000000000000000000000000000000000000000000000000000000\n        /* \"demo/demo12.sol\":388:424  return type(MyInterface).interfaceId */\n      swap1\n      pop\n        /* \"demo/demo12.sol\":334:430  function getId() external pure returns(bytes4) {... */\n      swap1\n      jump\t// out\n        /* \"demo/demo12.sol\":936:1003  function foo() external pure returns(uint256) {... */\n    tag_19:\n        /* \"demo/demo12.sol\":973:980  uint256 */\n      0x00\n        /* \"demo/demo12.sol\":936:1003  function foo() external pure returns(uint256) {... */\n      swap1\n      jump\t// out\n        /* \"demo/demo12.sol\":536:666  function calcId() external pure returns(bytes4) {... */\n    tag_23:\n        /* \"demo/demo12.sol\":576:582  bytes4 */\n      0x00\n        /* \"demo/demo12.sol\":641:659  keccak256(\"bar()\") */\n      0xfebb0f7ec7039aa2e910a219ff647ff82e58de8885d5a0f8da34066efaa52846\n        /* \"demo/demo12.sol\":605:623  keccak256(\"foo()\") */\n      0xc2985578b8f3b75f7dc66a767be2a4ef7d7c2224896a1c86e92ccf30bae678b7\n        /* \"demo/demo12.sol\":598:660  bytes4(keccak256(\"foo()\"))... */\n      xor\n        /* \"demo/demo12.sol\":591:660  return bytes4(keccak256(\"foo()\"))... */\n      swap1\n      pop\n        /* \"demo/demo12.sol\":536:666  function calcId() external pure returns(bytes4) {... */\n      swap1\n      jump\t// out\n        /* \"demo/demo12.sol\":1053:1120  function bar() external pure returns(bool) {... */\n    tag_26:\n        /* \"demo/demo12.sol\":1090:1094  bool */\n      0x00\n        /* \"demo/demo12.sol\":1110:1114  true */\n      0x01\n        /* \"demo/demo12.sol\":1103:1114  return true */\n      swap1\n      pop\n        /* \"demo/demo12.sol\":1053:1120  function bar() external pure returns(bool) {... */\n      swap1\n      jump\t// out\n        /* \"#utility.yul\":88:205   */\n    tag_34:\n        /* \"#utility.yul\":197:198   */\n      0x00\n        /* \"#utility.yul\":194:195   */\n      dup1\n        /* \"#utility.yul\":187:199   */\n      revert\n        /* \"#utility.yul\":334:483   */\n    tag_36:\n        /* \"#utility.yul\":370:377   */\n      0x00\n        /* \"#utility.yul\":410:476   */\n      0xffffffff00000000000000000000000000000000000000000000000000000000\n        /* \"#utility.yul\":403:408   */\n      dup3\n        /* \"#utility.yul\":399:477   */\n      and\n        /* \"#utility.yul\":388:477   */\n      swap1\n      pop\n        /* \"#utility.yul\":334:483   */\n      swap2\n      swap1\n      pop\n      jump\t// out\n        /* \"#utility.yul\":489:609   */\n    tag_37:\n        /* \"#utility.yul\":561:584   */\n      tag_50\n        /* \"#utility.yul\":578:583   */\n      dup2\n        /* \"#utility.yul\":561:584   */\n      tag_36\n      jump\t// in\n    tag_50:\n        /* \"#utility.yul\":554:559   */\n      dup2\n        /* \"#utility.yul\":551:585   */\n      eq\n        /* \"#utility.yul\":541:603   */\n      tag_51\n      jumpi\n        /* \"#utility.yul\":599:600   */\n      0x00\n        /* \"#utility.yul\":596:597   */\n      dup1\n        /* \"#utility.yul\":589:601   */\n      revert\n        /* \"#utility.yul\":541:603   */\n    tag_51:\n        /* \"#utility.yul\":489:609   */\n      pop\n      jump\t// out\n        /* \"#utility.yul\":615:752   */\n    tag_38:\n        /* \"#utility.yul\":660:665   */\n      0x00\n        /* \"#utility.yul\":698:704   */\n      dup2\n        /* \"#utility.yul\":685:705   */\n      calldataload\n        /* \"#utility.yul\":676:705   */\n      swap1\n      pop\n        /* \"#utility.yul\":714:746   */\n      tag_53\n        /* \"#utility.yul\":740:745   */\n      dup2\n        /* \"#utility.yul\":714:746   */\n      tag_37\n      jump\t// in\n    tag_53:\n        /* \"#utility.yul\":615:752   */\n      swap3\n      swap2\n      pop\n      pop\n      jump\t// out\n        /* \"#utility.yul\":758:1085   */\n    tag_10:\n        /* \"#utility.yul\":816:822   */\n      0x00\n        /* \"#utility.yul\":865:867   */\n      0x20\n        /* \"#utility.yul\":853:862   */\n      dup3\n        /* \"#utility.yul\":844:851   */\n      dup5\n        /* \"#utility.yul\":840:863   */\n      sub\n        /* \"#utility.yul\":836:868   */\n      slt\n        /* \"#utility.yul\":833:952   */\n      iszero\n      tag_55\n      jumpi\n        /* \"#utility.yul\":871:950   */\n      tag_56\n      tag_34\n      jump\t// in\n    tag_56:\n        /* \"#utility.yul\":833:952   */\n    tag_55:\n        /* \"#utility.yul\":991:992   */\n      0x00\n        /* \"#utility.yul\":1016:1068   */\n      tag_57\n        /* \"#utility.yul\":1060:1067   */\n      dup5\n        /* \"#utility.yul\":1051:1057   */\n      dup3\n        /* \"#utility.yul\":1040:1049   */\n      dup6\n        /* \"#utility.yul\":1036:1058   */\n      add\n        /* \"#utility.yul\":1016:1068   */\n      tag_38\n      jump\t// in\n    tag_57:\n        /* \"#utility.yul\":1006:1068   */\n      swap2\n      pop\n        /* \"#utility.yul\":962:1078   */\n      pop\n        /* \"#utility.yul\":758:1085   */\n      swap3\n      swap2\n      pop\n      pop\n      jump\t// out\n        /* \"#utility.yul\":1091:1181   */\n    tag_39:\n        /* \"#utility.yul\":1125:1132   */\n      0x00\n        /* \"#utility.yul\":1168:1173   */\n      dup2\n        /* \"#utility.yul\":1161:1174   */\n      iszero\n        /* \"#utility.yul\":1154:1175   */\n      iszero\n        /* \"#utility.yul\":1143:1175   */\n      swap1\n      pop\n        /* \"#utility.yul\":1091:1181   */\n      swap2\n      swap1\n      pop\n      jump\t// out\n        /* \"#utility.yul\":1187:1296   */\n    tag_40:\n        /* \"#utility.yul\":1268:1289   */\n      tag_60\n        /* \"#utility.yul\":1283:1288   */\n      dup2\n        /* \"#utility.yul\":1268:1289   */\n      tag_39\n      jump\t// in\n    tag_60:\n        /* \"#utility.yul\":1263:1266   */\n      dup3\n        /* \"#utility.yul\":1256:1290   */\n      mstore\n        /* \"#utility.yul\":1187:1296   */\n      pop\n      pop\n      jump\t// out\n        /* \"#utility.yul\":1302:1512   */\n    tag_13:\n        /* \"#utility.yul\":1389:1393   */\n      0x00\n        /* \"#utility.yul\":1427:1429   */\n      0x20\n        /* \"#utility.yul\":1416:1425   */\n      dup3\n        /* \"#utility.yul\":1412:1430   */\n      add\n        /* \"#utility.yul\":1404:1430   */\n      swap1\n      pop\n        /* \"#utility.yul\":1440:1505   */\n      tag_62\n        /* \"#utility.yul\":1502:1503   */\n      0x00\n        /* \"#utility.yul\":1491:1500   */\n      dup4\n        /* \"#utility.yul\":1487:1504   */\n      add\n        /* \"#utility.yul\":1478:1484   */\n      dup5\n        /* \"#utility.yul\":1440:1505   */\n      tag_40\n      jump\t// in\n    tag_62:\n        /* \"#utility.yul\":1302:1512   */\n      swap3\n      swap2\n      pop\n      pop\n      jump\t// out\n        /* \"#utility.yul\":1518:1633   */\n    tag_41:\n        /* \"#utility.yul\":1603:1626   */\n      tag_64\n        /* \"#utility.yul\":1620:1625   */\n      dup2\n        /* \"#utility.yul\":1603:1626   */\n      tag_36\n      jump\t// in\n    tag_64:\n        /* \"#utility.yul\":1598:1601   */\n      dup3\n        /* \"#utility.yul\":1591:1627   */\n      mstore\n        /* \"#utility.yul\":1518:1633   */\n      pop\n      pop\n      jump\t// out\n        /* \"#utility.yul\":1639:1857   */\n    tag_17:\n        /* \"#utility.yul\":1730:1734   */\n      0x00\n        /* \"#utility.yul\":1768:1770   */\n      0x20\n        /* \"#utility.yul\":1757:1766   */\n      dup3\n        /* \"#utility.yul\":1753:1771   */\n      add\n        /* \"#utility.yul\":1745:1771   */\n      swap1\n      pop\n        /* \"#utility.yul\":1781:1850   */\n      tag_66\n        /* \"#utility.yul\":1847:1848   */\n      0x00\n        /* \"#utility.yul\":1836:1845   */\n      dup4\n        /* \"#utility.yul\":1832:1849   */\n      add\n        /* \"#utility.yul\":1823:1829   */\n      dup5\n        /* \"#utility.yul\":1781:1850   */\n      tag_41\n      jump\t// in\n    tag_66:\n        /* \"#utility.yul\":1639:1857   */\n      swap3\n      swap2\n      pop\n      pop\n      jump\t// out\n        /* \"#utility.yul\":1863:1940   */\n    tag_42:\n        /* \"#utility.yul\":1900:1907   */\n      0x00\n        /* \"#utility.yul\":1929:1934   */\n      dup2\n        /* \"#utility.yul\":1918:1934   */\n      swap1\n      pop\n        /* \"#utility.yul\":1863:1940   */\n      swap2\n      swap1\n      pop\n      jump\t// out\n        /* \"#utility.yul\":1946:2064   */\n    tag_43:\n        /* \"#utility.yul\":2033:2057   */\n      tag_69\n        /* \"#utility.yul\":2051:2056   */\n      dup2\n        /* \"#utility.yul\":2033:2057   */\n      tag_42\n      jump\t// in\n    tag_69:\n        /* \"#utility.yul\":2028:2031   */\n      dup3\n        /* \"#utility.yul\":2021:2058   */\n      mstore\n        /* \"#utility.yul\":1946:2064   */\n      pop\n      pop\n      jump\t// out\n        /* \"#utility.yul\":2070:2292   */\n    tag_21:\n        /* \"#utility.yul\":2163:2167   */\n      0x00\n        /* \"#utility.yul\":2201:2203   */\n      0x20\n        /* \"#utility.yul\":2190:2199   */\n      dup3\n        /* \"#utility.yul\":2186:2204   */\n      add\n        /* \"#utility.yul\":2178:2204   */\n      swap1\n      pop\n        /* \"#utility.yul\":2214:2285   */\n      tag_71\n        /* \"#utility.yul\":2282:2283   */\n      0x00\n        /* \"#utility.yul\":2271:2280   */\n      dup4\n        /* \"#utility.yul\":2267:2284   */\n      add\n        /* \"#utility.yul\":2258:2264   */\n      dup5\n        /* \"#utility.yul\":2214:2285   */\n      tag_43\n      jump\t// in\n    tag_71:\n        /* \"#utility.yul\":2070:2292   */\n      swap3\n      swap2\n      pop\n      pop\n      jump\t// out\n\n    auxdata: 0xa26469706673582212200c5e84e62f27cb678ca916587b434cf7016f40b36c01d6159b05043835cb72e764736f6c634300081a0033\n}\n",
				"bytecode": {
					"linkReferences": {},
					"object": "6080604052348015600e575f80fd5b5061032c8061001c5f395ff3fe608060405234801561000f575f80fd5b5060043610610055575f3560e01c806301ffc9a7146100595780635d1ca63114610089578063c2985578146100a7578063e897de0a146100c5578063febb0f7e146100e3575b5f80fd5b610073600480360381019061006e919061023f565b610101565b6040516100809190610284565b60405180910390f35b61009161016a565b60405161009e91906102ac565b60405180910390f35b6100af610191565b6040516100bc91906102dd565b60405180910390f35b6100cd610195565b6040516100da91906102ac565b60405180910390f35b6100eb6101de565b6040516100f89190610284565b60405180910390f35b5f7f3c235a06000000000000000000000000000000000000000000000000000000007bffffffffffffffffffffffffffffffffffffffffffffffffffffffff1916827bffffffffffffffffffffffffffffffffffffffffffffffffffffffff1916149050919050565b5f7f3c235a0600000000000000000000000000000000000000000000000000000000905090565b5f90565b5f7ffebb0f7ec7039aa2e910a219ff647ff82e58de8885d5a0f8da34066efaa528467fc2985578b8f3b75f7dc66a767be2a4ef7d7c2224896a1c86e92ccf30bae678b718905090565b5f6001905090565b5f80fd5b5f7fffffffff0000000000000000000000000000000000000000000000000000000082169050919050565b61021e816101ea565b8114610228575f80fd5b50565b5f8135905061023981610215565b92915050565b5f60208284031215610254576102536101e6565b5b5f6102618482850161022b565b91505092915050565b5f8115159050919050565b61027e8161026a565b82525050565b5f6020820190506102975f830184610275565b92915050565b6102a6816101ea565b82525050565b5f6020820190506102bf5f83018461029d565b92915050565b5f819050919050565b6102d7816102c5565b82525050565b5f6020820190506102f05f8301846102ce565b9291505056fea26469706673582212200c5e84e62f27cb678ca916587b434cf7016f40b36c01d6159b05043835cb72e764736f6c634300081a0033",
					"opcodes": "PUSH1 0x80 PUSH1 0x40 MSTORE CALLVALUE DUP1 ISZERO PUSH1 0xE JUMPI PUSH0 DUP1 REVERT JUMPDEST POP PUSH2 0x32C DUP1 PUSH2 0x1C PUSH0 CODECOPY PUSH0 RETURN INVALID PUSH1 0x80 PUSH1 0x40 MSTORE CALLVALUE DUP1 ISZERO PUSH2 0xF JUMPI PUSH0 DUP1 REVERT JUMPDEST POP PUSH1 0x4 CALLDATASIZE LT PUSH2 0x55 JUMPI PUSH0 CALLDATALOAD PUSH1 0xE0 SHR DUP1 PUSH4 0x1FFC9A7 EQ PUSH2 0x59 JUMPI DUP1 PUSH4 0x5D1CA631 EQ PUSH2 0x89 JUMPI DUP1 PUSH4 0xC2985578 EQ PUSH2 0xA7 JUMPI DUP1 PUSH4 0xE897DE0A EQ PUSH2 0xC5 JUMPI DUP1 PUSH4 0xFEBB0F7E EQ PUSH2 0xE3 JUMPI JUMPDEST PUSH0 DUP1 REVERT JUMPDEST PUSH2 0x73 PUSH1 0x4 DUP1 CALLDATASIZE SUB DUP2 ADD SWAP1 PUSH2 0x6E SWAP2 SWAP1 PUSH2 0x23F JUMP JUMPDEST PUSH2 0x101 JUMP JUMPDEST PUSH1 0x40 MLOAD PUSH2 0x80 SWAP2 SWAP1 PUSH2 0x284 JUMP JUMPDEST PUSH1 0x40 MLOAD DUP1 SWAP2 SUB SWAP1 RETURN JUMPDEST PUSH2 0x91 PUSH2 0x16A JUMP JUMPDEST PUSH1 0x40 MLOAD PUSH2 0x9E SWAP2 SWAP1 PUSH2 0x2AC JUMP JUMPDEST PUSH1 0x40 MLOAD DUP1 SWAP2 SUB SWAP1 RETURN JUMPDEST PUSH2 0xAF PUSH2 0x191 JUMP JUMPDEST PUSH1 0x40 MLOAD PUSH2 0xBC SWAP2 SWAP1 PUSH2 0x2DD JUMP JUMPDEST PUSH1 0x40 MLOAD DUP1 SWAP2 SUB SWAP1 RETURN JUMPDEST PUSH2 0xCD PUSH2 0x195 JUMP JUMPDEST PUSH1 0x40 MLOAD PUSH2 0xDA SWAP2 SWAP1 PUSH2 0x2AC JUMP JUMPDEST PUSH1 0x40 MLOAD DUP1 SWAP2 SUB SWAP1 RETURN JUMPDEST PUSH2 0xEB PUSH2 0x1DE JUMP JUMPDEST PUSH1 0x40 MLOAD PUSH2 0xF8 SWAP2 SWAP1 PUSH2 0x284 JUMP JUMPDEST PUSH1 0x40 MLOAD DUP1 SWAP2 SUB SWAP1 RETURN JUMPDEST PUSH0 PUSH32 0x3C235A0600000000000000000000000000000000000000000000000000000000 PUSH28 0xFFFFFFFFFFFFFFFFFFFFFFFFFFFFFFFFFFFFFFFFFFFFFFFFFFFFFFFF NOT AND DUP3 PUSH28 0xFFFFFFFFFFFFFFFFFFFFFFFFFFFFFFFFFFFFFFFFFFFFFFFFFFFFFFFF NOT AND EQ SWAP1 POP SWAP2 SWAP1 POP JUMP JUMPDEST PUSH0 PUSH32 0x3C235A0600000000000000000000000000000000000000000000000000000000 SWAP1 POP SWAP1 JUMP JUMPDEST PUSH0 SWAP1 JUMP JUMPDEST PUSH0 PUSH32 0xFEBB0F7EC7039AA2E910A219FF647FF82E58DE8885D5A0F8DA34066EFAA52846 PUSH32 0xC2985578B8F3B75F7DC66A767BE2A4EF7D7C2224896A1C86E92CCF30BAE678B7 XOR SWAP1 POP SWAP1 JUMP JUMPDEST PUSH0 PUSH1 0x1 SWAP1 POP SWAP1 JUMP JUMPDEST PUSH0 DUP1 REVERT JUMPDEST PUSH0 PUSH32 0xFFFFFFFF00000000000000000000000000000000000000000000000000000000 DUP3 AND SWAP1 POP SWAP2 SWAP1 POP JUMP JUMPDEST PUSH2 0x21E DUP2 PUSH2 0x1EA JUMP JUMPDEST DUP2 EQ PUSH2 0x228 JUMPI PUSH0 DUP1 REVERT JUMPDEST POP JUMP JUMPDEST PUSH0 DUP2 CALLDATALOAD SWAP1 POP PUSH2 0x239 DUP2 PUSH2 0x215 JUMP JUMPDEST SWAP3 SWAP2 POP POP JUMP JUMPDEST PUSH0 PUSH1 0x20 DUP3 DUP5 SUB SLT ISZERO PUSH2 0x254 JUMPI PUSH2 0x253 PUSH2 0x1E6 JUMP JUMPDEST JUMPDEST PUSH0 PUSH2 0x261 DUP5 DUP3 DUP6 ADD PUSH2 0x22B JUMP JUMPDEST SWAP2 POP POP SWAP3 SWAP2 POP POP JUMP JUMPDEST PUSH0 DUP2 ISZERO ISZERO SWAP1 POP SWAP2 SWAP1 POP JUMP JUMPDEST PUSH2 0x27E DUP2 PUSH2 0x26A JUMP JUMPDEST DUP3 MSTORE POP POP JUMP JUMPDEST PUSH0 PUSH1 0x20 DUP3 ADD SWAP1 POP PUSH2 0x297 PUSH0 DUP4 ADD DUP5 PUSH2 0x275 JUMP JUMPDEST SWAP3 SWAP2 POP POP JUMP JUMPDEST PUSH2 0x2A6 DUP2 PUSH2 0x1EA JUMP JUMPDEST DUP3 MSTORE POP POP JUMP JUMPDEST PUSH0 PUSH1 0x20 DUP3 ADD SWAP1 POP PUSH2 0x2BF PUSH0 DUP4 ADD DUP5 PUSH2 0x29D JUMP JUMPDEST SWAP3 SWAP2 POP POP JUMP JUMPDEST PUSH0 DUP2 SWAP1 POP SWAP2 SWAP1 POP JUMP JUMPDEST PUSH2 0x2D7 DUP2 PUSH2 0x2C5 JUMP JUMPDEST DUP3 MSTORE POP POP JUMP JUMPDEST PUSH0 PUSH1 0x20 DUP3 ADD SWAP1 POP PUSH2 0x2F0 PUSH0 DUP4 ADD DUP5 PUSH2 0x2CE JUMP JUMPDEST SWAP3 SWAP2 POP POP JUMP INVALID LOG2 PUSH5 0x6970667358 0x22 SLT KECCAK256 0xC MCOPY DUP5 0xE6 0x2F 0x27 0xCB PUSH8 0x8CA916587B434CF7 ADD PUSH16 0x40B36C01D6159B05043835CB72E76473 PUSH16 0x6C634300081A00330000000000000000 "
				},
				"gasEstimates": {
					"creation": {
						"codeDepositCost": "162400",
						"executionCost": "206",
						"totalCost": "162606"
					},
					"external": {
						"bar()": "404",
						"calcId()": "388",
						"foo()": "346",
						"getId()": "338",
						"supportsInterface(bytes4)": "607"
					}
				},
				"methodIdentifiers": {
					"bar()": "febb0f7e",
					"calcId()": "e897de0a",
					"foo()": "c2985578",
					"getId()": "5d1ca631",
					"supportsInterface(bytes4)": "01ffc9a7"
				}
			},
			"storageLayout": {
				"storage": [],
				"types": null
			},
			"userdoc": {
				"kind": "user",
				"methods": {},
				"version": 1
			}
		}
	}
}