{
	"data": {
		"bytecode": {
			"linkReferences": {},
			"object": "6080604052348015600e575f80fd5b506103948061001c5f395ff3fe608060405234801561000f575f80fd5b5060043610610034575f3560e01c806317c3a3ac146100385780636ae5836514610057575b5f80fd5b610040610075565b60405161004e929190610264565b60405180910390f35b61005f6100bd565b60405161006c91906102e4565b60405180910390f35b60605f806040518060400160405280600b81526020017f48656c6c6f20576f726c64000000000000000000000000000000000000000000815250905080815192509250509091565b60605f600267ffffffffffffffff8111156100db576100da610304565b5b6040519080825280601f01601f19166020018201604052801561010d5781602001600182028036833780820191505090505b5090507f6f00000000000000000000000000000000000000000000000000000000000000815f8151811061014457610143610331565b5b60200101907effffffffffffffffffffffffffffffffffffffffffffffffffffffffffffff191690815f1a9053507f6b00000000000000000000000000000000000000000000000000000000000000816001815181106101a7576101a6610331565b5b60200101907effffffffffffffffffffffffffffffffffffffffffffffffffffffffffffff191690815f1a9053508091505090565b5f81519050919050565b5f82825260208201905092915050565b8281835e5f83830152505050565b5f601f19601f8301169050919050565b5f61021e826101dc565b61022881856101e6565b93506102388185602086016101f6565b61024181610204565b840191505092915050565b5f819050919050565b61025e8161024c565b82525050565b5f6040820190508181035f83015261027c8185610214565b905061028b6020830184610255565b9392505050565b5f81519050919050565b5f82825260208201905092915050565b5f6102b682610292565b6102c0818561029c565b93506102d08185602086016101f6565b6102d981610204565b840191505092915050565b5f6020820190508181035f8301526102fc81846102ac565b905092915050565b7f4e487b71000000000000000000000000000000000000000000000000000000005f52604160045260245ffd5b7f4e487b71000000000000000000000000000000000000000000000000000000005f52603260045260245ffdfea26469706673582212208cec57826d0b257efe0ff53a240cc8fa2b205723063c0bdffc3f5682feb47fc664736f6c634300081a0033",
			"opcodes": "PUSH1 0x80 PUSH1 0x40 MSTORE CALLVALUE DUP1 ISZERO PUSH1 0xE JUMPI PUSH0 DUP1 REVERT JUMPDEST POP PUSH2 0x394 DUP1 PUSH2 0x1C PUSH0 CODECOPY PUSH0 RETURN INVALID PUSH1 0x80 PUSH1 0x40 MSTORE CALLVALUE DUP1 ISZERO PUSH2 0xF JUMPI PUSH0 DUP1 REVERT JUMPDEST POP PUSH1 0x4 CALLDATASIZE LT PUSH2 0x34 JUMPI PUSH0 CALLDATALOAD PUSH1 0xE0 SHR DUP1 PUSH4 0x17C3A3AC EQ PUSH2 0x38 JUMPI DUP1 PUSH4 0x6AE58365 EQ PUSH2 0x57 JUMPI JUMPDEST PUSH0 DUP1 REVERT JUMPDEST PUSH2 0x40 PUSH2 0x75 JUMP JUMPDEST PUSH1 0x40 MLOAD PUSH2 0x4E SWAP3 SWAP2 SWAP1 PUSH2 0x264 JUMP JUMPDEST PUSH1 0x40 MLOAD DUP1 SWAP2 SUB SWAP1 RETURN JUMPDEST PUSH2 0x5F PUSH2 0xBD JUMP JUMPDEST PUSH1 0x40 MLOAD PUSH2 0x6C SWAP2 SWAP1 PUSH2 0x2E4 JUMP JUMPDEST PUSH1 0x40 MLOAD DUP1 SWAP2 SUB SWAP1 RETURN JUMPDEST PUSH1 0x60 PUSH0 DUP1 PUSH1 0x40 MLOAD DUP1 PUSH1 0x40 ADD PUSH1 0x40 MSTORE DUP1 PUSH1 0xB DUP2 MSTORE PUSH1 0x20 ADD PUSH32 0x48656C6C6F20576F726C64000000000000000000000000000000000000000000 DUP2 MSTORE POP SWAP1 POP DUP1 DUP2 MLOAD SWAP3 POP SWAP3 POP POP SWAP1 SWAP2 JUMP JUMPDEST PUSH1 0x60 PUSH0 PUSH1 0x2 PUSH8 0xFFFFFFFFFFFFFFFF DUP2 GT ISZERO PUSH2 0xDB JUMPI PUSH2 0xDA PUSH2 0x304 JUMP JUMPDEST JUMPDEST PUSH1 0x40 MLOAD SWAP1 DUP1 DUP3 MSTORE DUP1 PUSH1 0x1F ADD PUSH1 0x1F NOT AND PUSH1 0x20 ADD DUP3 ADD PUSH1 0x40 MSTORE DUP1 ISZERO PUSH2 0x10D JUMPI DUP2 PUSH1 0x20 ADD PUSH1 0x1 DUP3 MUL DUP1 CALLDATASIZE DUP4 CALLDATACOPY DUP1 DUP3 ADD SWAP2 POP POP SWAP1 POP JUMPDEST POP SWAP1 POP PUSH32 0x6F00000000000000000000000000000000000000000000000000000000000000 DUP2 PUSH0 DUP2 MLOAD DUP2 LT PUSH2 0x144 JUMPI PUSH2 0x143 PUSH2 0x331 JUMP JUMPDEST JUMPDEST PUSH1 0x20 ADD ADD SWAP1 PUSH31 0xFFFFFFFFFFFFFFFFFFFFFFFFFFFFFFFFFFFFFFFFFFFFFFFFFFFFFFFFFFFFFF NOT AND SWAP1 DUP2 PUSH0 BYTE SWAP1 MSTORE8 POP PUSH32 0x6B00000000000000000000000000000000000000000000000000000000000000 DUP2 PUSH1 0x1 DUP2 MLOAD DUP2 LT PUSH2 0x1A7 JUMPI PUSH2 0x1A6 PUSH2 0x331 JUMP JUMPDEST JUMPDEST PUSH1 0x20 ADD ADD SWAP1 PUSH31 0xFFFFFFFFFFFFFFFFFFFFFFFFFFFFFFFFFFFFFFFFFFFFFFFFFFFFFFFFFFFFFF NOT AND SWAP1 DUP2 PUSH0 BYTE SWAP1 MSTORE8 POP DUP1 SWAP2 POP POP SWAP1 JUMP JUMPDEST PUSH0 DUP2 MLOAD SWAP1 POP SWAP2 SWAP1 POP JUMP JUMPDEST PUSH0 DUP3 DUP3 MSTORE PUSH1 0x20 DUP3 ADD SWAP1 POP SWAP3 SWAP2 POP POP JUMP JUMPDEST DUP3 DUP2 DUP4 MCOPY PUSH0 DUP4 DUP4 ADD MSTORE POP POP POP JUMP JUMPDEST PUSH0 PUSH1 0x1F NOT PUSH1 0x1F DUP4 ADD AND SWAP1 POP SWAP2 SWAP1 POP JUMP JUMPDEST PUSH0 PUSH2 0x21E DUP3 PUSH2 0x1DC JUMP JUMPDEST PUSH2 0x228 DUP2 DUP6 PUSH2 0x1E6 JUMP JUMPDEST SWAP4 POP PUSH2 0x238 DUP2 DUP6 PUSH1 0x20 DUP7 ADD PUSH2 0x1F6 JUMP JUMPDEST PUSH2 0x241 DUP2 PUSH2 0x204 JUMP JUMPDEST DUP5 ADD SWAP2 POP POP SWAP3 SWAP2 POP POP JUMP JUMPDEST PUSH0 DUP2 SWAP1 POP SWAP2 SWAP1 POP JUMP JUMPDEST PUSH2 0x25E DUP2 PUSH2 0x24C JUMP JUMPDEST DUP3 MSTORE POP POP JUMP JUMPDEST PUSH0 PUSH1 0x40 DUP3 ADD SWAP1 POP DUP2 DUP2 SUB PUSH0 DUP4 ADD MSTORE PUSH2 0x27C DUP2 DUP6 PUSH2 0x214 JUMP JUMPDEST SWAP1 POP PUSH2 0x28B PUSH1 0x20 DUP4 ADD DUP5 PUSH2 0x255 JUMP JUMPDEST SWAP4 SWAP3 POP POP POP JUMP JUMPDEST PUSH0 DUP2 MLOAD SWAP1 POP SWAP2 SWAP1 POP JUMP JUMPDEST PUSH0 DUP3 DUP3 MSTORE PUSH1 0x20 DUP3 ADD SWAP1 POP SWAP3 SWAP2 POP POP JUMP JUMPDEST PUSH0 PUSH2 0x2B6 DUP3 PUSH2 0x292 JUMP JUMPDEST PUSH2 0x2C0 DUP2 DUP6 PUSH2 0x29C JUMP JUMPDEST SWAP4 POP PUSH2 0x2D0 DUP2 DUP6 PUSH1 0x20 DUP7 ADD PUSH2 0x1F6 JUMP JUMPDEST PUSH2 0x2D9 DUP2 PUSH2 0x204 JUMP JUMPDEST DUP5 ADD SWAP2 POP POP SWAP3 SWAP2 POP POP JUMP JUMPDEST PUSH0 PUSH1 0x20 DUP3 ADD SWAP1 POP DUP2 DUP2 SUB PUSH0 DUP4 ADD MSTORE PUSH2 0x2FC DUP2 DUP5 PUSH2 0x2AC JUMP JUMPDEST SWAP1 POP SWAP3 SWAP2 POP POP JUMP JUMPDEST PUSH32 0x4E487B7100000000000000000000000000000000000000000000000000000000 PUSH0 MSTORE PUSH1 0x41 PUSH1 0x4 MSTORE PUSH1 0x24 PUSH0 REVERT JUMPDEST PUSH32 0x4E487B7100000000000000000000000000000000000000000000000000000000 PUSH0 MSTORE PUSH1 0x32 PUSH1 0x4 MSTORE PUSH1 0x24 PUSH0 REVERT INVALID LOG2 PUSH5 0x6970667358 0x22 SLT KECCAK256 DUP13 0xEC JUMPI DUP3 PUSH14 0xB257EFE0FF53A240CC8FA2B2057 0x23 MOD EXTCODECOPY SIGNEXTEND 0xDF 0xFC EXTCODEHASH JUMP DUP3 INVALID 0xB4 PUSH32 0xC664736F6C634300081A00330000000000000000000000000000000000000000 "
		},
		"gasEstimates": {
			"creation": {
				"codeDepositCost": "183200",
				"executionCost": "224",
				"totalCost": "183424"
			},
			"external": {
				"bytesToString()": "infinite",
				"stringToBytes()": "infinite"
			}
		},
		"methodIdentifiers": {
			"bytesToString()": "6ae58365",
			"stringToBytes()": "17c3a3ac"
		}
	},
	"abi": [
		{
			"inputs": [],
			"name": "bytesToString",
			"outputs": [
				{
					"internalType": "string",
					"name": "",
					"type": "string"
				}
			],
			"stateMutability": "pure",
			"type": "function"
		},
		{
			"inputs": [],
			"name": "stringToBytes",
			"outputs": [
				{
					"internalType": "bytes",
					"name": "",
					"type": "bytes"
				},
				{
					"internalType": "uint256",
					"name": "",
					"type": "uint256"
				}
			],
			"stateMutability": "pure",
			"type": "function"
		}
	]
}