{
	"data": {
		"bytecode": {
			"linkReferences": {},
			"object": "6080604052348015600e575f80fd5b506101678061001c5f395ff3fe608060405234801561000f575f80fd5b5060043610610034575f3560e01c806344c984a714610038578063ea3d508a14610056575b5f80fd5b610040610074565b60405161004d9190610118565b60405180910390f35b61005e61009b565b60405161006b9190610118565b60405180910390f35b5f7f7afbe4f1c55b5f72ea356f5b4d5615831867af31454a5ca5557f315e6d11a369905090565b5f6040518060400160405280601481526020017f4164642875696e743235362c75696e743235362900000000000000000000000081525080519060200120905090565b5f7fffffffff0000000000000000000000000000000000000000000000000000000082169050919050565b610112816100de565b82525050565b5f60208201905061012b5f830184610109565b9291505056fea2646970667358221220e5ef9f1d2818831f95ee614903acb1ca101655891fb998d13fa522e5611c3d3664736f6c634300081a0033",
			"opcodes": "PUSH1 0x80 PUSH1 0x40 MSTORE CALLVALUE DUP1 ISZERO PUSH1 0xE JUMPI PUSH0 DUP1 REVERT JUMPDEST POP PUSH2 0x167 DUP1 PUSH2 0x1C PUSH0 CODECOPY PUSH0 RETURN INVALID PUSH1 0x80 PUSH1 0x40 MSTORE CALLVALUE DUP1 ISZERO PUSH2 0xF JUMPI PUSH0 DUP1 REVERT JUMPDEST POP PUSH1 0x4 CALLDATASIZE LT PUSH2 0x34 JUMPI PUSH0 CALLDATALOAD PUSH1 0xE0 SHR DUP1 PUSH4 0x44C984A7 EQ PUSH2 0x38 JUMPI DUP1 PUSH4 0xEA3D508A EQ PUSH2 0x56 JUMPI JUMPDEST PUSH0 DUP1 REVERT JUMPDEST PUSH2 0x40 PUSH2 0x74 JUMP JUMPDEST PUSH1 0x40 MLOAD PUSH2 0x4D SWAP2 SWAP1 PUSH2 0x118 JUMP JUMPDEST PUSH1 0x40 MLOAD DUP1 SWAP2 SUB SWAP1 RETURN JUMPDEST PUSH2 0x5E PUSH2 0x9B JUMP JUMPDEST PUSH1 0x40 MLOAD PUSH2 0x6B SWAP2 SWAP1 PUSH2 0x118 JUMP JUMPDEST PUSH1 0x40 MLOAD DUP1 SWAP2 SUB SWAP1 RETURN JUMPDEST PUSH0 PUSH32 0x7AFBE4F1C55B5F72EA356F5B4D5615831867AF31454A5CA5557F315E6D11A369 SWAP1 POP SWAP1 JUMP JUMPDEST PUSH0 PUSH1 0x40 MLOAD DUP1 PUSH1 0x40 ADD PUSH1 0x40 MSTORE DUP1 PUSH1 0x14 DUP2 MSTORE PUSH1 0x20 ADD PUSH32 0x4164642875696E743235362C75696E7432353629000000000000000000000000 DUP2 MSTORE POP DUP1 MLOAD SWAP1 PUSH1 0x20 ADD KECCAK256 SWAP1 POP SWAP1 JUMP JUMPDEST PUSH0 PUSH32 0xFFFFFFFF00000000000000000000000000000000000000000000000000000000 DUP3 AND SWAP1 POP SWAP2 SWAP1 POP JUMP JUMPDEST PUSH2 0x112 DUP2 PUSH2 0xDE JUMP JUMPDEST DUP3 MSTORE POP POP JUMP JUMPDEST PUSH0 PUSH1 0x20 DUP3 ADD SWAP1 POP PUSH2 0x12B PUSH0 DUP4 ADD DUP5 PUSH2 0x109 JUMP JUMPDEST SWAP3 SWAP2 POP POP JUMP INVALID LOG2 PUSH5 0x6970667358 0x22 SLT KECCAK256 0xE5 0xEF SWAP16 SAR 0x28 XOR DUP4 0x1F SWAP6 0xEE PUSH2 0x4903 0xAC 0xB1 0xCA LT AND SSTORE DUP10 0x1F 0xB9 SWAP9 0xD1 EXTCODEHASH 0xA5 0x22 0xE5 PUSH2 0x1C3D CALLDATASIZE PUSH5 0x736F6C6343 STOP ADDMOD BYTE STOP CALLER "
		},
		"gasEstimates": {
			"creation": {
				"codeDepositCost": "71800",
				"executionCost": "121",
				"totalCost": "71921"
			},
			"external": {
				"selector()": "442",
				"selector2()": "316"
			}
		},
		"methodIdentifiers": {
			"selector()": "ea3d508a",
			"selector2()": "44c984a7"
		}
	},
	"abi": [
		{
			"inputs": [],
			"name": "selector",
			"outputs": [
				{
					"internalType": "bytes4",
					"name": "",
					"type": "bytes4"
				}
			],
			"stateMutability": "pure",
			"type": "function"
		},
		{
			"inputs": [],
			"name": "selector2",
			"outputs": [
				{
					"internalType": "bytes4",
					"name": "",
					"type": "bytes4"
				}
			],
			"stateMutability": "pure",
			"type": "function"
		}
	]
}