{
	"data": {
		"bytecode": {
			"linkReferences": {},
			"object": "6080604052348015600e575f80fd5b503360025f6101000a81548173ffffffffffffffffffffffffffffffffffffffff021916908373ffffffffffffffffffffffffffffffffffffffff1602179055506127f68061005c5f395ff3fe608060405234801561000f575f80fd5b5060043610610114575f3560e01c80637831ffb3116100a0578063a73889671161006f578063a738896714610331578063b28d92ae1461034f578063b9be31521461036d578063c91ec7121461038b578063f7522a83146103a757610114565b80637831ffb31461025e5780638ab66a901461028e5780638fb4cd80146102c4578063a3ec138d146102fa57610114565b80633a88251a116100e75780633a88251a146101a657806343242daa146101d65780635cc48aa7146102065780635f74bbde1461022457806370218b851461024057610114565b80630361419e1461011857806305ad45a41461013457806313182dce146101525780632a466ac714610170575b5f80fd5b610132600480360381019061012d9190611b01565b6103c5565b005b61013c610632565b6040516101499190611bd1565b60405180910390f35b61015a61063e565b6040516101679190611ca1565b60405180910390f35b61018a60048036038101906101859190611cc1565b6106c9565b60405161019d9796959493929190611d5b565b60405180910390f35b6101c060048036038101906101bb9190611e0e565b610af5565b6040516101cd9190611e39565b60405180910390f35b6101f060048036038101906101eb9190611e0e565b610b30565b6040516101fd9190611e39565b60405180910390f35b61020e610b6b565b60405161021b9190611e39565b60405180910390f35b61023e60048036038101906102399190611e52565b610b90565b005b610248610d4b565b6040516102559190611ca1565b60405180910390f35b61027860048036038101906102739190611e0e565b610dd6565b6040516102859190611e39565b60405180910390f35b6102a860048036038101906102a39190611cc1565b610e11565b6040516102bb9796959493929190611e90565b60405180910390f35b6102de60048036038101906102d99190611cc1565b611086565b6040516102f19796959493929190611f33565b60405180910390f35b610314600480360381019061030f9190611cc1565b611434565b604051610328989796959493929190611fb5565b60405180910390f35b610339611635565b6040516103469190611bd1565b60405180910390f35b610357611640565b6040516103649190611ca1565b60405180910390f35b6103756116cb565b6040516103829190611bd1565b60405180910390f35b6103a560048036038101906103a09190612046565b6116d5565b005b6103af61192e565b6040516103bc9190611bd1565b60405180910390f35b3373ffffffffffffffffffffffffffffffffffffffff1660025f9054906101000a900473ffffffffffffffffffffffffffffffffffffffff1673ffffffffffffffffffffffffffffffffffffffff1614610454576040517f08c379a000000000000000000000000000000000000000000000000000000000815260040161044b9061219d565b60405180910390fd5b61045d5f61193a565b5f6104675f61194e565b90505f60075f8773ffffffffffffffffffffffffffffffffffffffff1673ffffffffffffffffffffffffffffffffffffffff1681526020019081526020015f2090505f8160040154146104b8575f80fd5b60018160040181905550848160010190816104d391906123b5565b50838160020190816104e591906123b5565b5085816003015f6101000a81548173ffffffffffffffffffffffffffffffffffffffff021916908373ffffffffffffffffffffffffffffffffffffffff16021790555081815f01819055506103e881600601819055505f816005015f6101000a81548160ff0219169083151502179055508281600701908161056791906123b5565b50600686908060018154018082558091505060019003905f5260205f20015f9091909190916101000a81548173ffffffffffffffffffffffffffffffffffffffff021916908373ffffffffffffffffffffffffffffffffffffffff160217905550805f01547ff5f39971dd62d9929e3a9feaa6bb77fe7c7da0001babff8a65a7e51ad0201c198686898560040154866005015f9054906101000a900460ff168760060154886007016040516106229796959493929190612505565b60405180910390a2505050505050565b5f600680549050905090565b606060058054806020026020016040519081016040528092919081815260200182805480156106bf57602002820191905f5260205f20905b815f9054906101000a900473ffffffffffffffffffffffffffffffffffffffff1673ffffffffffffffffffffffffffffffffffffffff1681526020019060010190808311610676575b5050505050905090565b6060805f60605f60605f60045f8973ffffffffffffffffffffffffffffffffffffffff1673ffffffffffffffffffffffffffffffffffffffff1681526020019081526020015f2060010160045f8a73ffffffffffffffffffffffffffffffffffffffff1673ffffffffffffffffffffffffffffffffffffffff1681526020019081526020015f2060020160045f8b73ffffffffffffffffffffffffffffffffffffffff1673ffffffffffffffffffffffffffffffffffffffff1681526020019081526020015f205f015460045f8c73ffffffffffffffffffffffffffffffffffffffff1673ffffffffffffffffffffffffffffffffffffffff1681526020019081526020015f2060030160045f8d73ffffffffffffffffffffffffffffffffffffffff1673ffffffffffffffffffffffffffffffffffffffff1681526020019081526020015f206004015460045f8e73ffffffffffffffffffffffffffffffffffffffff1673ffffffffffffffffffffffffffffffffffffffff1681526020019081526020015f2060060160045f8f73ffffffffffffffffffffffffffffffffffffffff1673ffffffffffffffffffffffffffffffffffffffff1681526020019081526020015f206005015f9054906101000a900473ffffffffffffffffffffffffffffffffffffffff168680546108c0906121e8565b80601f01602080910402602001604051908101604052809291908181526020018280546108ec906121e8565b80156109375780601f1061090e57610100808354040283529160200191610937565b820191905f5260205f20905b81548152906001019060200180831161091a57829003601f168201915b5050505050965085805461094a906121e8565b80601f0160208091040260200160405190810160405280929190818152602001828054610976906121e8565b80156109c15780601f10610998576101008083540402835291602001916109c1565b820191905f5260205f20905b8154815290600101906020018083116109a457829003601f168201915b505050505095508380546109d4906121e8565b80601f0160208091040260200160405190810160405280929190818152602001828054610a00906121e8565b8015610a4b5780601f10610a2257610100808354040283529160200191610a4b565b820191905f5260205f20905b815481529060010190602001808311610a2e57829003601f168201915b50505050509350818054610a5e906121e8565b80601f0160208091040260200160405190810160405280929190818152602001828054610a8a906121e8565b8015610ad55780601f10610aac57610100808354040283529160200191610ad5565b820191905f5260205f20905b815481529060010190602001808311610ab857829003601f168201915b505050505091509650965096509650965096509650919395979092949650565b60038181548110610b04575f80fd5b905f5260205f20015f915054906101000a900473ffffffffffffffffffffffffffffffffffffffff1681565b60068181548110610b3f575f80fd5b905f5260205f20015f915054906101000a900473ffffffffffffffffffffffffffffffffffffffff1681565b60025f9054906101000a900473ffffffffffffffffffffffffffffffffffffffff1681565b5f60075f3373ffffffffffffffffffffffffffffffffffffffff1673ffffffffffffffffffffffffffffffffffffffff1681526020019081526020015f209050806005015f9054906101000a900460ff1615610c21576040517f08c379a0000000000000000000000000000000000000000000000000000000008152600401610c18906125d1565b60405180910390fd5b5f816004015403610c67576040517f08c379a0000000000000000000000000000000000000000000000000000000008152600401610c5e90612639565b60405180910390fd5b6001816005015f6101000a81548160ff021916908315150217905550818160060181905550600533908060018154018082558091505060019003905f5260205f20015f9091909190916101000a81548173ffffffffffffffffffffffffffffffffffffffff021916908373ffffffffffffffffffffffffffffffffffffffff160217905550806004015460045f8573ffffffffffffffffffffffffffffffffffffffff1673ffffffffffffffffffffffffffffffffffffffff1681526020019081526020015f206004015f828254610d3f9190612684565b92505081905550505050565b60606003805480602002602001604051908101604052809291908181526020018280548015610dcc57602002820191905f5260205f20905b815f9054906101000a900473ffffffffffffffffffffffffffffffffffffffff1673ffffffffffffffffffffffffffffffffffffffff1681526020019060010190808311610d83575b5050505050905090565b60058181548110610de5575f80fd5b905f5260205f20015f915054906101000a900473ffffffffffffffffffffffffffffffffffffffff1681565b6004602052805f5260405f205f91509050805f015490806001018054610e36906121e8565b80601f0160208091040260200160405190810160405280929190818152602001828054610e62906121e8565b8015610ead5780601f10610e8457610100808354040283529160200191610ead565b820191905f5260205f20905b815481529060010190602001808311610e9057829003601f168201915b505050505090806002018054610ec2906121e8565b80601f0160208091040260200160405190810160405280929190818152602001828054610eee906121e8565b8015610f395780601f10610f1057610100808354040283529160200191610f39565b820191905f5260205f20905b815481529060010190602001808311610f1c57829003601f168201915b505050505090806003018054610f4e906121e8565b80601f0160208091040260200160405190810160405280929190818152602001828054610f7a906121e8565b8015610fc55780601f10610f9c57610100808354040283529160200191610fc5565b820191905f5260205f20905b815481529060010190602001808311610fa857829003601f168201915b505050505090806004015490806005015f9054906101000a900473ffffffffffffffffffffffffffffffffffffffff1690806006018054611005906121e8565b80601f0160208091040260200160405190810160405280929190818152602001828054611031906121e8565b801561107c5780601f106110535761010080835404028352916020019161107c565b820191905f5260205f20905b81548152906001019060200180831161105f57829003601f168201915b5050505050905087565b5f6060805f60605f8060075f8973ffffffffffffffffffffffffffffffffffffffff1673ffffffffffffffffffffffffffffffffffffffff1681526020019081526020015f205f015460075f8a73ffffffffffffffffffffffffffffffffffffffff1673ffffffffffffffffffffffffffffffffffffffff1681526020019081526020015f2060010160075f8b73ffffffffffffffffffffffffffffffffffffffff1673ffffffffffffffffffffffffffffffffffffffff1681526020019081526020015f2060020160075f8c73ffffffffffffffffffffffffffffffffffffffff1673ffffffffffffffffffffffffffffffffffffffff1681526020019081526020015f206003015f9054906101000a900473ffffffffffffffffffffffffffffffffffffffff1660075f8d73ffffffffffffffffffffffffffffffffffffffff1673ffffffffffffffffffffffffffffffffffffffff1681526020019081526020015f2060070160075f8e73ffffffffffffffffffffffffffffffffffffffff1673ffffffffffffffffffffffffffffffffffffffff1681526020019081526020015f206004015460075f8f73ffffffffffffffffffffffffffffffffffffffff1673ffffffffffffffffffffffffffffffffffffffff1681526020019081526020015f206005015f9054906101000a900460ff16858054611289906121e8565b80601f01602080910402602001604051908101604052809291908181526020018280546112b5906121e8565b80156113005780601f106112d757610100808354040283529160200191611300565b820191905f5260205f20905b8154815290600101906020018083116112e357829003601f168201915b50505050509550848054611313906121e8565b80601f016020809104026020016040519081016040528092919081815260200182805461133f906121e8565b801561138a5780601f106113615761010080835404028352916020019161138a565b820191905f5260205f20905b81548152906001019060200180831161136d57829003601f168201915b5050505050945082805461139d906121e8565b80601f01602080910402602001604051908101604052809291908181526020018280546113c9906121e8565b80156114145780601f106113eb57610100808354040283529160200191611414565b820191905f5260205f20905b8154815290600101906020018083116113f757829003601f168201915b505050505092509650965096509650965096509650919395979092949650565b6007602052805f5260405f205f91509050805f015490806001018054611459906121e8565b80601f0160208091040260200160405190810160405280929190818152602001828054611485906121e8565b80156114d05780601f106114a7576101008083540402835291602001916114d0565b820191905f5260205f20905b8154815290600101906020018083116114b357829003601f168201915b5050505050908060020180546114e5906121e8565b80601f0160208091040260200160405190810160405280929190818152602001828054611511906121e8565b801561155c5780601f106115335761010080835404028352916020019161155c565b820191905f5260205f20905b81548152906001019060200180831161153f57829003601f168201915b505050505090806003015f9054906101000a900473ffffffffffffffffffffffffffffffffffffffff1690806004015490806005015f9054906101000a900460ff16908060060154908060070180546115b4906121e8565b80601f01602080910402602001604051908101604052809291908181526020018280546115e0906121e8565b801561162b5780601f106116025761010080835404028352916020019161162b565b820191905f5260205f20905b81548152906001019060200180831161160e57829003601f168201915b5050505050905088565b6001805f0154905081565b606060068054806020026020016040519081016040528092919081815260200182805480156116c157602002820191905f5260205f20905b815f9054906101000a900473ffffffffffffffffffffffffffffffffffffffff1673ffffffffffffffffffffffffffffffffffffffff1681526020019060010190808311611678575b5050505050905090565b5f805f0154905081565b3373ffffffffffffffffffffffffffffffffffffffff1660025f9054906101000a900473ffffffffffffffffffffffffffffffffffffffff1673ffffffffffffffffffffffffffffffffffffffff1614611764576040517f08c379a000000000000000000000000000000000000000000000000000000000815260040161175b90612727565b60405180910390fd5b61176e600161193a565b5f611779600161194e565b90505f60045f8873ffffffffffffffffffffffffffffffffffffffff1673ffffffffffffffffffffffffffffffffffffffff1681526020019081526020015f209050858160010190816117cc91906123b5565b50848160020190816117de91906123b5565b5081815f0181905550838160030190816117f891906123b5565b505f816004018190555086816005015f6101000a81548173ffffffffffffffffffffffffffffffffffffffff021916908373ffffffffffffffffffffffffffffffffffffffff1602179055508281600601908161185591906123b5565b50600387908060018154018082558091505060019003905f5260205f20015f9091909190916101000a81548173ffffffffffffffffffffffffffffffffffffffff021916908373ffffffffffffffffffffffffffffffffffffffff160217905550805f01547fd297f12b256bb8485a6013fb5e302017018123e99a0ebb20756c09e1707b4b908787878560040154866005015f9054906101000a900473ffffffffffffffffffffffffffffffffffffffff168760060160405161191d96959493929190612745565b60405180910390a250505050505050565b5f600380549050905090565b6001815f015f828254019250508190555050565b5f815f01549050919050565b5f604051905090565b5f80fd5b5f80fd5b5f73ffffffffffffffffffffffffffffffffffffffff82169050919050565b5f6119948261196b565b9050919050565b6119a48161198a565b81146119ae575f80fd5b50565b5f813590506119bf8161199b565b92915050565b5f80fd5b5f80fd5b5f601f19601f8301169050919050565b7f4e487b71000000000000000000000000000000000000000000000000000000005f52604160045260245ffd5b611a13826119cd565b810181811067ffffffffffffffff82111715611a3257611a316119dd565b5b80604052505050565b5f611a4461195a565b9050611a508282611a0a565b919050565b5f67ffffffffffffffff821115611a6f57611a6e6119dd565b5b611a78826119cd565b9050602081019050919050565b828183375f83830152505050565b5f611aa5611aa084611a55565b611a3b565b905082815260208101848484011115611ac157611ac06119c9565b5b611acc848285611a85565b509392505050565b5f82601f830112611ae857611ae76119c5565b5b8135611af8848260208601611a93565b91505092915050565b5f805f8060808587031215611b1957611b18611963565b5b5f611b26878288016119b1565b945050602085013567ffffffffffffffff811115611b4757611b46611967565b5b611b5387828801611ad4565b935050604085013567ffffffffffffffff811115611b7457611b73611967565b5b611b8087828801611ad4565b925050606085013567ffffffffffffffff811115611ba157611ba0611967565b5b611bad87828801611ad4565b91505092959194509250565b5f819050919050565b611bcb81611bb9565b82525050565b5f602082019050611be45f830184611bc2565b92915050565b5f81519050919050565b5f82825260208201905092915050565b5f819050602082019050919050565b611c1c8161198a565b82525050565b5f611c2d8383611c13565b60208301905092915050565b5f602082019050919050565b5f611c4f82611bea565b611c598185611bf4565b9350611c6483611c04565b805f5b83811015611c94578151611c7b8882611c22565b9750611c8683611c39565b925050600181019050611c67565b5085935050505092915050565b5f6020820190508181035f830152611cb98184611c45565b905092915050565b5f60208284031215611cd657611cd5611963565b5b5f611ce3848285016119b1565b91505092915050565b5f81519050919050565b5f82825260208201905092915050565b8281835e5f83830152505050565b5f611d1e82611cec565b611d288185611cf6565b9350611d38818560208601611d06565b611d41816119cd565b840191505092915050565b611d558161198a565b82525050565b5f60e0820190508181035f830152611d73818a611d14565b90508181036020830152611d878189611d14565b9050611d966040830188611bc2565b8181036060830152611da88187611d14565b9050611db76080830186611bc2565b81810360a0830152611dc98185611d14565b9050611dd860c0830184611d4c565b98975050505050505050565b611ded81611bb9565b8114611df7575f80fd5b50565b5f81359050611e0881611de4565b92915050565b5f60208284031215611e2357611e22611963565b5b5f611e3084828501611dfa565b91505092915050565b5f602082019050611e4c5f830184611d4c565b92915050565b5f8060408385031215611e6857611e67611963565b5b5f611e75858286016119b1565b9250506020611e8685828601611dfa565b9150509250929050565b5f60e082019050611ea35f83018a611bc2565b8181036020830152611eb58189611d14565b90508181036040830152611ec98188611d14565b90508181036060830152611edd8187611d14565b9050611eec6080830186611bc2565b611ef960a0830185611d4c565b81810360c0830152611f0b8184611d14565b905098975050505050505050565b5f8115159050919050565b611f2d81611f19565b82525050565b5f60e082019050611f465f83018a611bc2565b8181036020830152611f588189611d14565b90508181036040830152611f6c8188611d14565b9050611f7b6060830187611d4c565b8181036080830152611f8d8186611d14565b9050611f9c60a0830185611bc2565b611fa960c0830184611f24565b98975050505050505050565b5f61010082019050611fc95f83018b611bc2565b8181036020830152611fdb818a611d14565b90508181036040830152611fef8189611d14565b9050611ffe6060830188611d4c565b61200b6080830187611bc2565b61201860a0830186611f24565b61202560c0830185611bc2565b81810360e08301526120378184611d14565b90509998505050505050505050565b5f805f805f60a0868803121561205f5761205e611963565b5b5f61206c888289016119b1565b955050602086013567ffffffffffffffff81111561208d5761208c611967565b5b61209988828901611ad4565b945050604086013567ffffffffffffffff8111156120ba576120b9611967565b5b6120c688828901611ad4565b935050606086013567ffffffffffffffff8111156120e7576120e6611967565b5b6120f388828901611ad4565b925050608086013567ffffffffffffffff81111561211457612113611967565b5b61212088828901611ad4565b9150509295509295909350565b7f596f752068617665206e6f20726967687420746f2070726f76696465206175745f8201527f686f72697a6174696f6e20666f7220766f746500000000000000000000000000602082015250565b5f612187603383611cf6565b91506121928261212d565b604082019050919050565b5f6020820190508181035f8301526121b48161217b565b9050919050565b7f4e487b71000000000000000000000000000000000000000000000000000000005f52602260045260245ffd5b5f60028204905060018216806121ff57607f821691505b602082108103612212576122116121bb565b5b50919050565b5f819050815f5260205f209050919050565b5f6020601f8301049050919050565b5f82821b905092915050565b5f600883026122747fffffffffffffffffffffffffffffffffffffffffffffffffffffffffffffffff82612239565b61227e8683612239565b95508019841693508086168417925050509392505050565b5f819050919050565b5f6122b96122b46122af84611bb9565b612296565b611bb9565b9050919050565b5f819050919050565b6122d28361229f565b6122e66122de826122c0565b848454612245565b825550505050565b5f90565b6122fa6122ee565b6123058184846122c9565b505050565b5b818110156123285761231d5f826122f2565b60018101905061230b565b5050565b601f82111561236d5761233e81612218565b6123478461222a565b81016020851015612356578190505b61236a6123628561222a565b83018261230a565b50505b505050565b5f82821c905092915050565b5f61238d5f1984600802612372565b1980831691505092915050565b5f6123a5838361237e565b9150826002028217905092915050565b6123be82611cec565b67ffffffffffffffff8111156123d7576123d66119dd565b5b6123e182546121e8565b6123ec82828561232c565b5f60209050601f83116001811461241d575f841561240b578287015190505b612415858261239a565b86555061247c565b601f19841661242b86612218565b5f5b828110156124525784890151825560018201915060208501945060208101905061242d565b8683101561246f578489015161246b601f89168261237e565b8355505b6001600288020188555050505b505050505050565b5f8154612490816121e8565b61249a8186611cf6565b9450600182165f81146124b457600181146124ca576124fc565b60ff1983168652811515602002860193506124fc565b6124d385612218565b5f5b838110156124f4578154818901526001820191506020810190506124d5565b808801955050505b50505092915050565b5f60e0820190508181035f83015261251d818a611d14565b905081810360208301526125318189611d14565b90506125406040830188611d4c565b61254d6060830187611bc2565b61255a6080830186611f24565b61256760a0830185611bc2565b81810360c08301526125798184612484565b905098975050505050505050565b7f596f75206861766520616c726561647920766f746564000000000000000000005f82015250565b5f6125bb601683611cf6565b91506125c682612587565b602082019050919050565b5f6020820190508181035f8301526125e8816125af565b9050919050565b7f596f752068617665206e6f20726967687420746f20766f7465000000000000005f82015250565b5f612623601983611cf6565b915061262e826125ef565b602082019050919050565b5f6020820190508181035f83015261265081612617565b9050919050565b7f4e487b71000000000000000000000000000000000000000000000000000000005f52601160045260245ffd5b5f61268e82611bb9565b915061269983611bb9565b92508282019050808211156126b1576126b0612657565b5b92915050565b7f596f752068617665206e6f20617a7574686f72697a6174696f6e20746f2073655f8201527f742043616e646964617465000000000000000000000000000000000000000000602082015250565b5f612711602b83611cf6565b915061271c826126b7565b604082019050919050565b5f6020820190508181035f83015261273e81612705565b9050919050565b5f60c0820190508181035f83015261275d8189611d14565b905081810360208301526127718188611d14565b905081810360408301526127858187611d14565b90506127946060830186611bc2565b6127a16080830185611d4c565b81810360a08301526127b38184612484565b905097965050505050505056fea2646970667358221220f4b4c86c366c1aacf90ede09e16ac9dd094f49369e229a6e94fc68cab188054b64736f6c634300081a0033",
			"opcodes": "PUSH1 0x80 PUSH1 0x40 MSTORE CALLVALUE DUP1 ISZERO PUSH1 0xE JUMPI PUSH0 DUP1 REVERT JUMPDEST POP CALLER PUSH1 0x2 PUSH0 PUSH2 0x100 EXP DUP2 SLOAD DUP2 PUSH20 0xFFFFFFFFFFFFFFFFFFFFFFFFFFFFFFFFFFFFFFFF MUL NOT AND SWAP1 DUP4 PUSH20 0xFFFFFFFFFFFFFFFFFFFFFFFFFFFFFFFFFFFFFFFF AND MUL OR SWAP1 SSTORE POP PUSH2 0x27F6 DUP1 PUSH2 0x5C PUSH0 CODECOPY PUSH0 RETURN INVALID PUSH1 0x80 PUSH1 0x40 MSTORE CALLVALUE DUP1 ISZERO PUSH2 0xF JUMPI PUSH0 DUP1 REVERT JUMPDEST POP PUSH1 0x4 CALLDATASIZE LT PUSH2 0x114 JUMPI PUSH0 CALLDATALOAD PUSH1 0xE0 SHR DUP1 PUSH4 0x7831FFB3 GT PUSH2 0xA0 JUMPI DUP1 PUSH4 0xA7388967 GT PUSH2 0x6F JUMPI DUP1 PUSH4 0xA7388967 EQ PUSH2 0x331 JUMPI DUP1 PUSH4 0xB28D92AE EQ PUSH2 0x34F JUMPI DUP1 PUSH4 0xB9BE3152 EQ PUSH2 0x36D JUMPI DUP1 PUSH4 0xC91EC712 EQ PUSH2 0x38B JUMPI DUP1 PUSH4 0xF7522A83 EQ PUSH2 0x3A7 JUMPI PUSH2 0x114 JUMP JUMPDEST DUP1 PUSH4 0x7831FFB3 EQ PUSH2 0x25E JUMPI DUP1 PUSH4 0x8AB66A90 EQ PUSH2 0x28E JUMPI DUP1 PUSH4 0x8FB4CD80 EQ PUSH2 0x2C4 JUMPI DUP1 PUSH4 0xA3EC138D EQ PUSH2 0x2FA JUMPI PUSH2 0x114 JUMP JUMPDEST DUP1 PUSH4 0x3A88251A GT PUSH2 0xE7 JUMPI DUP1 PUSH4 0x3A88251A EQ PUSH2 0x1A6 JUMPI DUP1 PUSH4 0x43242DAA EQ PUSH2 0x1D6 JUMPI DUP1 PUSH4 0x5CC48AA7 EQ PUSH2 0x206 JUMPI DUP1 PUSH4 0x5F74BBDE EQ PUSH2 0x224 JUMPI DUP1 PUSH4 0x70218B85 EQ PUSH2 0x240 JUMPI PUSH2 0x114 JUMP JUMPDEST DUP1 PUSH4 0x361419E EQ PUSH2 0x118 JUMPI DUP1 PUSH4 0x5AD45A4 EQ PUSH2 0x134 JUMPI DUP1 PUSH4 0x13182DCE EQ PUSH2 0x152 JUMPI DUP1 PUSH4 0x2A466AC7 EQ PUSH2 0x170 JUMPI JUMPDEST PUSH0 DUP1 REVERT JUMPDEST PUSH2 0x132 PUSH1 0x4 DUP1 CALLDATASIZE SUB DUP2 ADD SWAP1 PUSH2 0x12D SWAP2 SWAP1 PUSH2 0x1B01 JUMP JUMPDEST PUSH2 0x3C5 JUMP JUMPDEST STOP JUMPDEST PUSH2 0x13C PUSH2 0x632 JUMP JUMPDEST PUSH1 0x40 MLOAD PUSH2 0x149 SWAP2 SWAP1 PUSH2 0x1BD1 JUMP JUMPDEST PUSH1 0x40 MLOAD DUP1 SWAP2 SUB SWAP1 RETURN JUMPDEST PUSH2 0x15A PUSH2 0x63E JUMP JUMPDEST PUSH1 0x40 MLOAD PUSH2 0x167 SWAP2 SWAP1 PUSH2 0x1CA1 JUMP JUMPDEST PUSH1 0x40 MLOAD DUP1 SWAP2 SUB SWAP1 RETURN JUMPDEST PUSH2 0x18A PUSH1 0x4 DUP1 CALLDATASIZE SUB DUP2 ADD SWAP1 PUSH2 0x185 SWAP2 SWAP1 PUSH2 0x1CC1 JUMP JUMPDEST PUSH2 0x6C9 JUMP JUMPDEST PUSH1 0x40 MLOAD PUSH2 0x19D SWAP8 SWAP7 SWAP6 SWAP5 SWAP4 SWAP3 SWAP2 SWAP1 PUSH2 0x1D5B JUMP JUMPDEST PUSH1 0x40 MLOAD DUP1 SWAP2 SUB SWAP1 RETURN JUMPDEST PUSH2 0x1C0 PUSH1 0x4 DUP1 CALLDATASIZE SUB DUP2 ADD SWAP1 PUSH2 0x1BB SWAP2 SWAP1 PUSH2 0x1E0E JUMP JUMPDEST PUSH2 0xAF5 JUMP JUMPDEST PUSH1 0x40 MLOAD PUSH2 0x1CD SWAP2 SWAP1 PUSH2 0x1E39 JUMP JUMPDEST PUSH1 0x40 MLOAD DUP1 SWAP2 SUB SWAP1 RETURN JUMPDEST PUSH2 0x1F0 PUSH1 0x4 DUP1 CALLDATASIZE SUB DUP2 ADD SWAP1 PUSH2 0x1EB SWAP2 SWAP1 PUSH2 0x1E0E JUMP JUMPDEST PUSH2 0xB30 JUMP JUMPDEST PUSH1 0x40 MLOAD PUSH2 0x1FD SWAP2 SWAP1 PUSH2 0x1E39 JUMP JUMPDEST PUSH1 0x40 MLOAD DUP1 SWAP2 SUB SWAP1 RETURN JUMPDEST PUSH2 0x20E PUSH2 0xB6B JUMP JUMPDEST PUSH1 0x40 MLOAD PUSH2 0x21B SWAP2 SWAP1 PUSH2 0x1E39 JUMP JUMPDEST PUSH1 0x40 MLOAD DUP1 SWAP2 SUB SWAP1 RETURN JUMPDEST PUSH2 0x23E PUSH1 0x4 DUP1 CALLDATASIZE SUB DUP2 ADD SWAP1 PUSH2 0x239 SWAP2 SWAP1 PUSH2 0x1E52 JUMP JUMPDEST PUSH2 0xB90 JUMP JUMPDEST STOP JUMPDEST PUSH2 0x248 PUSH2 0xD4B JUMP JUMPDEST PUSH1 0x40 MLOAD PUSH2 0x255 SWAP2 SWAP1 PUSH2 0x1CA1 JUMP JUMPDEST PUSH1 0x40 MLOAD DUP1 SWAP2 SUB SWAP1 RETURN JUMPDEST PUSH2 0x278 PUSH1 0x4 DUP1 CALLDATASIZE SUB DUP2 ADD SWAP1 PUSH2 0x273 SWAP2 SWAP1 PUSH2 0x1E0E JUMP JUMPDEST PUSH2 0xDD6 JUMP JUMPDEST PUSH1 0x40 MLOAD PUSH2 0x285 SWAP2 SWAP1 PUSH2 0x1E39 JUMP JUMPDEST PUSH1 0x40 MLOAD DUP1 SWAP2 SUB SWAP1 RETURN JUMPDEST PUSH2 0x2A8 PUSH1 0x4 DUP1 CALLDATASIZE SUB DUP2 ADD SWAP1 PUSH2 0x2A3 SWAP2 SWAP1 PUSH2 0x1CC1 JUMP JUMPDEST PUSH2 0xE11 JUMP JUMPDEST PUSH1 0x40 MLOAD PUSH2 0x2BB SWAP8 SWAP7 SWAP6 SWAP5 SWAP4 SWAP3 SWAP2 SWAP1 PUSH2 0x1E90 JUMP JUMPDEST PUSH1 0x40 MLOAD DUP1 SWAP2 SUB SWAP1 RETURN JUMPDEST PUSH2 0x2DE PUSH1 0x4 DUP1 CALLDATASIZE SUB DUP2 ADD SWAP1 PUSH2 0x2D9 SWAP2 SWAP1 PUSH2 0x1CC1 JUMP JUMPDEST PUSH2 0x1086 JUMP JUMPDEST PUSH1 0x40 MLOAD PUSH2 0x2F1 SWAP8 SWAP7 SWAP6 SWAP5 SWAP4 SWAP3 SWAP2 SWAP1 PUSH2 0x1F33 JUMP JUMPDEST PUSH1 0x40 MLOAD DUP1 SWAP2 SUB SWAP1 RETURN JUMPDEST PUSH2 0x314 PUSH1 0x4 DUP1 CALLDATASIZE SUB DUP2 ADD SWAP1 PUSH2 0x30F SWAP2 SWAP1 PUSH2 0x1CC1 JUMP JUMPDEST PUSH2 0x1434 JUMP JUMPDEST PUSH1 0x40 MLOAD PUSH2 0x328 SWAP9 SWAP8 SWAP7 SWAP6 SWAP5 SWAP4 SWAP3 SWAP2 SWAP1 PUSH2 0x1FB5 JUMP JUMPDEST PUSH1 0x40 MLOAD DUP1 SWAP2 SUB SWAP1 RETURN JUMPDEST PUSH2 0x339 PUSH2 0x1635 JUMP JUMPDEST PUSH1 0x40 MLOAD PUSH2 0x346 SWAP2 SWAP1 PUSH2 0x1BD1 JUMP JUMPDEST PUSH1 0x40 MLOAD DUP1 SWAP2 SUB SWAP1 RETURN JUMPDEST PUSH2 0x357 PUSH2 0x1640 JUMP JUMPDEST PUSH1 0x40 MLOAD PUSH2 0x364 SWAP2 SWAP1 PUSH2 0x1CA1 JUMP JUMPDEST PUSH1 0x40 MLOAD DUP1 SWAP2 SUB SWAP1 RETURN JUMPDEST PUSH2 0x375 PUSH2 0x16CB JUMP JUMPDEST PUSH1 0x40 MLOAD PUSH2 0x382 SWAP2 SWAP1 PUSH2 0x1BD1 JUMP JUMPDEST PUSH1 0x40 MLOAD DUP1 SWAP2 SUB SWAP1 RETURN JUMPDEST PUSH2 0x3A5 PUSH1 0x4 DUP1 CALLDATASIZE SUB DUP2 ADD SWAP1 PUSH2 0x3A0 SWAP2 SWAP1 PUSH2 0x2046 JUMP JUMPDEST PUSH2 0x16D5 JUMP JUMPDEST STOP JUMPDEST PUSH2 0x3AF PUSH2 0x192E JUMP JUMPDEST PUSH1 0x40 MLOAD PUSH2 0x3BC SWAP2 SWAP1 PUSH2 0x1BD1 JUMP JUMPDEST PUSH1 0x40 MLOAD DUP1 SWAP2 SUB SWAP1 RETURN JUMPDEST CALLER PUSH20 0xFFFFFFFFFFFFFFFFFFFFFFFFFFFFFFFFFFFFFFFF AND PUSH1 0x2 PUSH0 SWAP1 SLOAD SWAP1 PUSH2 0x100 EXP SWAP1 DIV PUSH20 0xFFFFFFFFFFFFFFFFFFFFFFFFFFFFFFFFFFFFFFFF AND PUSH20 0xFFFFFFFFFFFFFFFFFFFFFFFFFFFFFFFFFFFFFFFF AND EQ PUSH2 0x454 JUMPI PUSH1 0x40 MLOAD PUSH32 0x8C379A000000000000000000000000000000000000000000000000000000000 DUP2 MSTORE PUSH1 0x4 ADD PUSH2 0x44B SWAP1 PUSH2 0x219D JUMP JUMPDEST PUSH1 0x40 MLOAD DUP1 SWAP2 SUB SWAP1 REVERT JUMPDEST PUSH2 0x45D PUSH0 PUSH2 0x193A JUMP JUMPDEST PUSH0 PUSH2 0x467 PUSH0 PUSH2 0x194E JUMP JUMPDEST SWAP1 POP PUSH0 PUSH1 0x7 PUSH0 DUP8 PUSH20 0xFFFFFFFFFFFFFFFFFFFFFFFFFFFFFFFFFFFFFFFF AND PUSH20 0xFFFFFFFFFFFFFFFFFFFFFFFFFFFFFFFFFFFFFFFF AND DUP2 MSTORE PUSH1 0x20 ADD SWAP1 DUP2 MSTORE PUSH1 0x20 ADD PUSH0 KECCAK256 SWAP1 POP PUSH0 DUP2 PUSH1 0x4 ADD SLOAD EQ PUSH2 0x4B8 JUMPI PUSH0 DUP1 REVERT JUMPDEST PUSH1 0x1 DUP2 PUSH1 0x4 ADD DUP2 SWAP1 SSTORE POP DUP5 DUP2 PUSH1 0x1 ADD SWAP1 DUP2 PUSH2 0x4D3 SWAP2 SWAP1 PUSH2 0x23B5 JUMP JUMPDEST POP DUP4 DUP2 PUSH1 0x2 ADD SWAP1 DUP2 PUSH2 0x4E5 SWAP2 SWAP1 PUSH2 0x23B5 JUMP JUMPDEST POP DUP6 DUP2 PUSH1 0x3 ADD PUSH0 PUSH2 0x100 EXP DUP2 SLOAD DUP2 PUSH20 0xFFFFFFFFFFFFFFFFFFFFFFFFFFFFFFFFFFFFFFFF MUL NOT AND SWAP1 DUP4 PUSH20 0xFFFFFFFFFFFFFFFFFFFFFFFFFFFFFFFFFFFFFFFF AND MUL OR SWAP1 SSTORE POP DUP2 DUP2 PUSH0 ADD DUP2 SWAP1 SSTORE POP PUSH2 0x3E8 DUP2 PUSH1 0x6 ADD DUP2 SWAP1 SSTORE POP PUSH0 DUP2 PUSH1 0x5 ADD PUSH0 PUSH2 0x100 EXP DUP2 SLOAD DUP2 PUSH1 0xFF MUL NOT AND SWAP1 DUP4 ISZERO ISZERO MUL OR SWAP1 SSTORE POP DUP3 DUP2 PUSH1 0x7 ADD SWAP1 DUP2 PUSH2 0x567 SWAP2 SWAP1 PUSH2 0x23B5 JUMP JUMPDEST POP PUSH1 0x6 DUP7 SWAP1 DUP1 PUSH1 0x1 DUP2 SLOAD ADD DUP1 DUP3 SSTORE DUP1 SWAP2 POP POP PUSH1 0x1 SWAP1 SUB SWAP1 PUSH0 MSTORE PUSH1 0x20 PUSH0 KECCAK256 ADD PUSH0 SWAP1 SWAP2 SWAP1 SWAP2 SWAP1 SWAP2 PUSH2 0x100 EXP DUP2 SLOAD DUP2 PUSH20 0xFFFFFFFFFFFFFFFFFFFFFFFFFFFFFFFFFFFFFFFF MUL NOT AND SWAP1 DUP4 PUSH20 0xFFFFFFFFFFFFFFFFFFFFFFFFFFFFFFFFFFFFFFFF AND MUL OR SWAP1 SSTORE POP DUP1 PUSH0 ADD SLOAD PUSH32 0xF5F39971DD62D9929E3A9FEAA6BB77FE7C7DA0001BABFF8A65A7E51AD0201C19 DUP7 DUP7 DUP10 DUP6 PUSH1 0x4 ADD SLOAD DUP7 PUSH1 0x5 ADD PUSH0 SWAP1 SLOAD SWAP1 PUSH2 0x100 EXP SWAP1 DIV PUSH1 0xFF AND DUP8 PUSH1 0x6 ADD SLOAD DUP9 PUSH1 0x7 ADD PUSH1 0x40 MLOAD PUSH2 0x622 SWAP8 SWAP7 SWAP6 SWAP5 SWAP4 SWAP3 SWAP2 SWAP1 PUSH2 0x2505 JUMP JUMPDEST PUSH1 0x40 MLOAD DUP1 SWAP2 SUB SWAP1 LOG2 POP POP POP POP POP POP JUMP JUMPDEST PUSH0 PUSH1 0x6 DUP1 SLOAD SWAP1 POP SWAP1 POP SWAP1 JUMP JUMPDEST PUSH1 0x60 PUSH1 0x5 DUP1 SLOAD DUP1 PUSH1 0x20 MUL PUSH1 0x20 ADD PUSH1 0x40 MLOAD SWAP1 DUP2 ADD PUSH1 0x40 MSTORE DUP1 SWAP3 SWAP2 SWAP1 DUP2 DUP2 MSTORE PUSH1 0x20 ADD DUP3 DUP1 SLOAD DUP1 ISZERO PUSH2 0x6BF JUMPI PUSH1 0x20 MUL DUP3 ADD SWAP2 SWAP1 PUSH0 MSTORE PUSH1 0x20 PUSH0 KECCAK256 SWAP1 JUMPDEST DUP2 PUSH0 SWAP1 SLOAD SWAP1 PUSH2 0x100 EXP SWAP1 DIV PUSH20 0xFFFFFFFFFFFFFFFFFFFFFFFFFFFFFFFFFFFFFFFF AND PUSH20 0xFFFFFFFFFFFFFFFFFFFFFFFFFFFFFFFFFFFFFFFF AND DUP2 MSTORE PUSH1 0x20 ADD SWAP1 PUSH1 0x1 ADD SWAP1 DUP1 DUP4 GT PUSH2 0x676 JUMPI JUMPDEST POP POP POP POP POP SWAP1 POP SWAP1 JUMP JUMPDEST PUSH1 0x60 DUP1 PUSH0 PUSH1 0x60 PUSH0 PUSH1 0x60 PUSH0 PUSH1 0x4 PUSH0 DUP10 PUSH20 0xFFFFFFFFFFFFFFFFFFFFFFFFFFFFFFFFFFFFFFFF AND PUSH20 0xFFFFFFFFFFFFFFFFFFFFFFFFFFFFFFFFFFFFFFFF AND DUP2 MSTORE PUSH1 0x20 ADD SWAP1 DUP2 MSTORE PUSH1 0x20 ADD PUSH0 KECCAK256 PUSH1 0x1 ADD PUSH1 0x4 PUSH0 DUP11 PUSH20 0xFFFFFFFFFFFFFFFFFFFFFFFFFFFFFFFFFFFFFFFF AND PUSH20 0xFFFFFFFFFFFFFFFFFFFFFFFFFFFFFFFFFFFFFFFF AND DUP2 MSTORE PUSH1 0x20 ADD SWAP1 DUP2 MSTORE PUSH1 0x20 ADD PUSH0 KECCAK256 PUSH1 0x2 ADD PUSH1 0x4 PUSH0 DUP12 PUSH20 0xFFFFFFFFFFFFFFFFFFFFFFFFFFFFFFFFFFFFFFFF AND PUSH20 0xFFFFFFFFFFFFFFFFFFFFFFFFFFFFFFFFFFFFFFFF AND DUP2 MSTORE PUSH1 0x20 ADD SWAP1 DUP2 MSTORE PUSH1 0x20 ADD PUSH0 KECCAK256 PUSH0 ADD SLOAD PUSH1 0x4 PUSH0 DUP13 PUSH20 0xFFFFFFFFFFFFFFFFFFFFFFFFFFFFFFFFFFFFFFFF AND PUSH20 0xFFFFFFFFFFFFFFFFFFFFFFFFFFFFFFFFFFFFFFFF AND DUP2 MSTORE PUSH1 0x20 ADD SWAP1 DUP2 MSTORE PUSH1 0x20 ADD PUSH0 KECCAK256 PUSH1 0x3 ADD PUSH1 0x4 PUSH0 DUP14 PUSH20 0xFFFFFFFFFFFFFFFFFFFFFFFFFFFFFFFFFFFFFFFF AND PUSH20 0xFFFFFFFFFFFFFFFFFFFFFFFFFFFFFFFFFFFFFFFF AND DUP2 MSTORE PUSH1 0x20 ADD SWAP1 DUP2 MSTORE PUSH1 0x20 ADD PUSH0 KECCAK256 PUSH1 0x4 ADD SLOAD PUSH1 0x4 PUSH0 DUP15 PUSH20 0xFFFFFFFFFFFFFFFFFFFFFFFFFFFFFFFFFFFFFFFF AND PUSH20 0xFFFFFFFFFFFFFFFFFFFFFFFFFFFFFFFFFFFFFFFF AND DUP2 MSTORE PUSH1 0x20 ADD SWAP1 DUP2 MSTORE PUSH1 0x20 ADD PUSH0 KECCAK256 PUSH1 0x6 ADD PUSH1 0x4 PUSH0 DUP16 PUSH20 0xFFFFFFFFFFFFFFFFFFFFFFFFFFFFFFFFFFFFFFFF AND PUSH20 0xFFFFFFFFFFFFFFFFFFFFFFFFFFFFFFFFFFFFFFFF AND DUP2 MSTORE PUSH1 0x20 ADD SWAP1 DUP2 MSTORE PUSH1 0x20 ADD PUSH0 KECCAK256 PUSH1 0x5 ADD PUSH0 SWAP1 SLOAD SWAP1 PUSH2 0x100 EXP SWAP1 DIV PUSH20 0xFFFFFFFFFFFFFFFFFFFFFFFFFFFFFFFFFFFFFFFF AND DUP7 DUP1 SLOAD PUSH2 0x8C0 SWAP1 PUSH2 0x21E8 JUMP JUMPDEST DUP1 PUSH1 0x1F ADD PUSH1 0x20 DUP1 SWAP2 DIV MUL PUSH1 0x20 ADD PUSH1 0x40 MLOAD SWAP1 DUP2 ADD PUSH1 0x40 MSTORE DUP1 SWAP3 SWAP2 SWAP1 DUP2 DUP2 MSTORE PUSH1 0x20 ADD DUP3 DUP1 SLOAD PUSH2 0x8EC SWAP1 PUSH2 0x21E8 JUMP JUMPDEST DUP1 ISZERO PUSH2 0x937 JUMPI DUP1 PUSH1 0x1F LT PUSH2 0x90E JUMPI PUSH2 0x100 DUP1 DUP4 SLOAD DIV MUL DUP4 MSTORE SWAP2 PUSH1 0x20 ADD SWAP2 PUSH2 0x937 JUMP JUMPDEST DUP3 ADD SWAP2 SWAP1 PUSH0 MSTORE PUSH1 0x20 PUSH0 KECCAK256 SWAP1 JUMPDEST DUP2 SLOAD DUP2 MSTORE SWAP1 PUSH1 0x1 ADD SWAP1 PUSH1 0x20 ADD DUP1 DUP4 GT PUSH2 0x91A JUMPI DUP3 SWAP1 SUB PUSH1 0x1F AND DUP3 ADD SWAP2 JUMPDEST POP POP POP POP POP SWAP7 POP DUP6 DUP1 SLOAD PUSH2 0x94A SWAP1 PUSH2 0x21E8 JUMP JUMPDEST DUP1 PUSH1 0x1F ADD PUSH1 0x20 DUP1 SWAP2 DIV MUL PUSH1 0x20 ADD PUSH1 0x40 MLOAD SWAP1 DUP2 ADD PUSH1 0x40 MSTORE DUP1 SWAP3 SWAP2 SWAP1 DUP2 DUP2 MSTORE PUSH1 0x20 ADD DUP3 DUP1 SLOAD PUSH2 0x976 SWAP1 PUSH2 0x21E8 JUMP JUMPDEST DUP1 ISZERO PUSH2 0x9C1 JUMPI DUP1 PUSH1 0x1F LT PUSH2 0x998 JUMPI PUSH2 0x100 DUP1 DUP4 SLOAD DIV MUL DUP4 MSTORE SWAP2 PUSH1 0x20 ADD SWAP2 PUSH2 0x9C1 JUMP JUMPDEST DUP3 ADD SWAP2 SWAP1 PUSH0 MSTORE PUSH1 0x20 PUSH0 KECCAK256 SWAP1 JUMPDEST DUP2 SLOAD DUP2 MSTORE SWAP1 PUSH1 0x1 ADD SWAP1 PUSH1 0x20 ADD DUP1 DUP4 GT PUSH2 0x9A4 JUMPI DUP3 SWAP1 SUB PUSH1 0x1F AND DUP3 ADD SWAP2 JUMPDEST POP POP POP POP POP SWAP6 POP DUP4 DUP1 SLOAD PUSH2 0x9D4 SWAP1 PUSH2 0x21E8 JUMP JUMPDEST DUP1 PUSH1 0x1F ADD PUSH1 0x20 DUP1 SWAP2 DIV MUL PUSH1 0x20 ADD PUSH1 0x40 MLOAD SWAP1 DUP2 ADD PUSH1 0x40 MSTORE DUP1 SWAP3 SWAP2 SWAP1 DUP2 DUP2 MSTORE PUSH1 0x20 ADD DUP3 DUP1 SLOAD PUSH2 0xA00 SWAP1 PUSH2 0x21E8 JUMP JUMPDEST DUP1 ISZERO PUSH2 0xA4B JUMPI DUP1 PUSH1 0x1F LT PUSH2 0xA22 JUMPI PUSH2 0x100 DUP1 DUP4 SLOAD DIV MUL DUP4 MSTORE SWAP2 PUSH1 0x20 ADD SWAP2 PUSH2 0xA4B JUMP JUMPDEST DUP3 ADD SWAP2 SWAP1 PUSH0 MSTORE PUSH1 0x20 PUSH0 KECCAK256 SWAP1 JUMPDEST DUP2 SLOAD DUP2 MSTORE SWAP1 PUSH1 0x1 ADD SWAP1 PUSH1 0x20 ADD DUP1 DUP4 GT PUSH2 0xA2E JUMPI DUP3 SWAP1 SUB PUSH1 0x1F AND DUP3 ADD SWAP2 JUMPDEST POP POP POP POP POP SWAP4 POP DUP2 DUP1 SLOAD PUSH2 0xA5E SWAP1 PUSH2 0x21E8 JUMP JUMPDEST DUP1 PUSH1 0x1F ADD PUSH1 0x20 DUP1 SWAP2 DIV MUL PUSH1 0x20 ADD PUSH1 0x40 MLOAD SWAP1 DUP2 ADD PUSH1 0x40 MSTORE DUP1 SWAP3 SWAP2 SWAP1 DUP2 DUP2 MSTORE PUSH1 0x20 ADD DUP3 DUP1 SLOAD PUSH2 0xA8A SWAP1 PUSH2 0x21E8 JUMP JUMPDEST DUP1 ISZERO PUSH2 0xAD5 JUMPI DUP1 PUSH1 0x1F LT PUSH2 0xAAC JUMPI PUSH2 0x100 DUP1 DUP4 SLOAD DIV MUL DUP4 MSTORE SWAP2 PUSH1 0x20 ADD SWAP2 PUSH2 0xAD5 JUMP JUMPDEST DUP3 ADD SWAP2 SWAP1 PUSH0 MSTORE PUSH1 0x20 PUSH0 KECCAK256 SWAP1 JUMPDEST DUP2 SLOAD DUP2 MSTORE SWAP1 PUSH1 0x1 ADD SWAP1 PUSH1 0x20 ADD DUP1 DUP4 GT PUSH2 0xAB8 JUMPI DUP3 SWAP1 SUB PUSH1 0x1F AND DUP3 ADD SWAP2 JUMPDEST POP POP POP POP POP SWAP2 POP SWAP7 POP SWAP7 POP SWAP7 POP SWAP7 POP SWAP7 POP SWAP7 POP SWAP7 POP SWAP2 SWAP4 SWAP6 SWAP8 SWAP1 SWAP3 SWAP5 SWAP7 POP JUMP JUMPDEST PUSH1 0x3 DUP2 DUP2 SLOAD DUP2 LT PUSH2 0xB04 JUMPI PUSH0 DUP1 REVERT JUMPDEST SWAP1 PUSH0 MSTORE PUSH1 0x20 PUSH0 KECCAK256 ADD PUSH0 SWAP2 POP SLOAD SWAP1 PUSH2 0x100 EXP SWAP1 DIV PUSH20 0xFFFFFFFFFFFFFFFFFFFFFFFFFFFFFFFFFFFFFFFF AND DUP2 JUMP JUMPDEST PUSH1 0x6 DUP2 DUP2 SLOAD DUP2 LT PUSH2 0xB3F JUMPI PUSH0 DUP1 REVERT JUMPDEST SWAP1 PUSH0 MSTORE PUSH1 0x20 PUSH0 KECCAK256 ADD PUSH0 SWAP2 POP SLOAD SWAP1 PUSH2 0x100 EXP SWAP1 DIV PUSH20 0xFFFFFFFFFFFFFFFFFFFFFFFFFFFFFFFFFFFFFFFF AND DUP2 JUMP JUMPDEST PUSH1 0x2 PUSH0 SWAP1 SLOAD SWAP1 PUSH2 0x100 EXP SWAP1 DIV PUSH20 0xFFFFFFFFFFFFFFFFFFFFFFFFFFFFFFFFFFFFFFFF AND DUP2 JUMP JUMPDEST PUSH0 PUSH1 0x7 PUSH0 CALLER PUSH20 0xFFFFFFFFFFFFFFFFFFFFFFFFFFFFFFFFFFFFFFFF AND PUSH20 0xFFFFFFFFFFFFFFFFFFFFFFFFFFFFFFFFFFFFFFFF AND DUP2 MSTORE PUSH1 0x20 ADD SWAP1 DUP2 MSTORE PUSH1 0x20 ADD PUSH0 KECCAK256 SWAP1 POP DUP1 PUSH1 0x5 ADD PUSH0 SWAP1 SLOAD SWAP1 PUSH2 0x100 EXP SWAP1 DIV PUSH1 0xFF AND ISZERO PUSH2 0xC21 JUMPI PUSH1 0x40 MLOAD PUSH32 0x8C379A000000000000000000000000000000000000000000000000000000000 DUP2 MSTORE PUSH1 0x4 ADD PUSH2 0xC18 SWAP1 PUSH2 0x25D1 JUMP JUMPDEST PUSH1 0x40 MLOAD DUP1 SWAP2 SUB SWAP1 REVERT JUMPDEST PUSH0 DUP2 PUSH1 0x4 ADD SLOAD SUB PUSH2 0xC67 JUMPI PUSH1 0x40 MLOAD PUSH32 0x8C379A000000000000000000000000000000000000000000000000000000000 DUP2 MSTORE PUSH1 0x4 ADD PUSH2 0xC5E SWAP1 PUSH2 0x2639 JUMP JUMPDEST PUSH1 0x40 MLOAD DUP1 SWAP2 SUB SWAP1 REVERT JUMPDEST PUSH1 0x1 DUP2 PUSH1 0x5 ADD PUSH0 PUSH2 0x100 EXP DUP2 SLOAD DUP2 PUSH1 0xFF MUL NOT AND SWAP1 DUP4 ISZERO ISZERO MUL OR SWAP1 SSTORE POP DUP2 DUP2 PUSH1 0x6 ADD DUP2 SWAP1 SSTORE POP PUSH1 0x5 CALLER SWAP1 DUP1 PUSH1 0x1 DUP2 SLOAD ADD DUP1 DUP3 SSTORE DUP1 SWAP2 POP POP PUSH1 0x1 SWAP1 SUB SWAP1 PUSH0 MSTORE PUSH1 0x20 PUSH0 KECCAK256 ADD PUSH0 SWAP1 SWAP2 SWAP1 SWAP2 SWAP1 SWAP2 PUSH2 0x100 EXP DUP2 SLOAD DUP2 PUSH20 0xFFFFFFFFFFFFFFFFFFFFFFFFFFFFFFFFFFFFFFFF MUL NOT AND SWAP1 DUP4 PUSH20 0xFFFFFFFFFFFFFFFFFFFFFFFFFFFFFFFFFFFFFFFF AND MUL OR SWAP1 SSTORE POP DUP1 PUSH1 0x4 ADD SLOAD PUSH1 0x4 PUSH0 DUP6 PUSH20 0xFFFFFFFFFFFFFFFFFFFFFFFFFFFFFFFFFFFFFFFF AND PUSH20 0xFFFFFFFFFFFFFFFFFFFFFFFFFFFFFFFFFFFFFFFF AND DUP2 MSTORE PUSH1 0x20 ADD SWAP1 DUP2 MSTORE PUSH1 0x20 ADD PUSH0 KECCAK256 PUSH1 0x4 ADD PUSH0 DUP3 DUP3 SLOAD PUSH2 0xD3F SWAP2 SWAP1 PUSH2 0x2684 JUMP JUMPDEST SWAP3 POP POP DUP2 SWAP1 SSTORE POP POP POP POP JUMP JUMPDEST PUSH1 0x60 PUSH1 0x3 DUP1 SLOAD DUP1 PUSH1 0x20 MUL PUSH1 0x20 ADD PUSH1 0x40 MLOAD SWAP1 DUP2 ADD PUSH1 0x40 MSTORE DUP1 SWAP3 SWAP2 SWAP1 DUP2 DUP2 MSTORE PUSH1 0x20 ADD DUP3 DUP1 SLOAD DUP1 ISZERO PUSH2 0xDCC JUMPI PUSH1 0x20 MUL DUP3 ADD SWAP2 SWAP1 PUSH0 MSTORE PUSH1 0x20 PUSH0 KECCAK256 SWAP1 JUMPDEST DUP2 PUSH0 SWAP1 SLOAD SWAP1 PUSH2 0x100 EXP SWAP1 DIV PUSH20 0xFFFFFFFFFFFFFFFFFFFFFFFFFFFFFFFFFFFFFFFF AND PUSH20 0xFFFFFFFFFFFFFFFFFFFFFFFFFFFFFFFFFFFFFFFF AND DUP2 MSTORE PUSH1 0x20 ADD SWAP1 PUSH1 0x1 ADD SWAP1 DUP1 DUP4 GT PUSH2 0xD83 JUMPI JUMPDEST POP POP POP POP POP SWAP1 POP SWAP1 JUMP JUMPDEST PUSH1 0x5 DUP2 DUP2 SLOAD DUP2 LT PUSH2 0xDE5 JUMPI PUSH0 DUP1 REVERT JUMPDEST SWAP1 PUSH0 MSTORE PUSH1 0x20 PUSH0 KECCAK256 ADD PUSH0 SWAP2 POP SLOAD SWAP1 PUSH2 0x100 EXP SWAP1 DIV PUSH20 0xFFFFFFFFFFFFFFFFFFFFFFFFFFFFFFFFFFFFFFFF AND DUP2 JUMP JUMPDEST PUSH1 0x4 PUSH1 0x20 MSTORE DUP1 PUSH0 MSTORE PUSH1 0x40 PUSH0 KECCAK256 PUSH0 SWAP2 POP SWAP1 POP DUP1 PUSH0 ADD SLOAD SWAP1 DUP1 PUSH1 0x1 ADD DUP1 SLOAD PUSH2 0xE36 SWAP1 PUSH2 0x21E8 JUMP JUMPDEST DUP1 PUSH1 0x1F ADD PUSH1 0x20 DUP1 SWAP2 DIV MUL PUSH1 0x20 ADD PUSH1 0x40 MLOAD SWAP1 DUP2 ADD PUSH1 0x40 MSTORE DUP1 SWAP3 SWAP2 SWAP1 DUP2 DUP2 MSTORE PUSH1 0x20 ADD DUP3 DUP1 SLOAD PUSH2 0xE62 SWAP1 PUSH2 0x21E8 JUMP JUMPDEST DUP1 ISZERO PUSH2 0xEAD JUMPI DUP1 PUSH1 0x1F LT PUSH2 0xE84 JUMPI PUSH2 0x100 DUP1 DUP4 SLOAD DIV MUL DUP4 MSTORE SWAP2 PUSH1 0x20 ADD SWAP2 PUSH2 0xEAD JUMP JUMPDEST DUP3 ADD SWAP2 SWAP1 PUSH0 MSTORE PUSH1 0x20 PUSH0 KECCAK256 SWAP1 JUMPDEST DUP2 SLOAD DUP2 MSTORE SWAP1 PUSH1 0x1 ADD SWAP1 PUSH1 0x20 ADD DUP1 DUP4 GT PUSH2 0xE90 JUMPI DUP3 SWAP1 SUB PUSH1 0x1F AND DUP3 ADD SWAP2 JUMPDEST POP POP POP POP POP SWAP1 DUP1 PUSH1 0x2 ADD DUP1 SLOAD PUSH2 0xEC2 SWAP1 PUSH2 0x21E8 JUMP JUMPDEST DUP1 PUSH1 0x1F ADD PUSH1 0x20 DUP1 SWAP2 DIV MUL PUSH1 0x20 ADD PUSH1 0x40 MLOAD SWAP1 DUP2 ADD PUSH1 0x40 MSTORE DUP1 SWAP3 SWAP2 SWAP1 DUP2 DUP2 MSTORE PUSH1 0x20 ADD DUP3 DUP1 SLOAD PUSH2 0xEEE SWAP1 PUSH2 0x21E8 JUMP JUMPDEST DUP1 ISZERO PUSH2 0xF39 JUMPI DUP1 PUSH1 0x1F LT PUSH2 0xF10 JUMPI PUSH2 0x100 DUP1 DUP4 SLOAD DIV MUL DUP4 MSTORE SWAP2 PUSH1 0x20 ADD SWAP2 PUSH2 0xF39 JUMP JUMPDEST DUP3 ADD SWAP2 SWAP1 PUSH0 MSTORE PUSH1 0x20 PUSH0 KECCAK256 SWAP1 JUMPDEST DUP2 SLOAD DUP2 MSTORE SWAP1 PUSH1 0x1 ADD SWAP1 PUSH1 0x20 ADD DUP1 DUP4 GT PUSH2 0xF1C JUMPI DUP3 SWAP1 SUB PUSH1 0x1F AND DUP3 ADD SWAP2 JUMPDEST POP POP POP POP POP SWAP1 DUP1 PUSH1 0x3 ADD DUP1 SLOAD PUSH2 0xF4E SWAP1 PUSH2 0x21E8 JUMP JUMPDEST DUP1 PUSH1 0x1F ADD PUSH1 0x20 DUP1 SWAP2 DIV MUL PUSH1 0x20 ADD PUSH1 0x40 MLOAD SWAP1 DUP2 ADD PUSH1 0x40 MSTORE DUP1 SWAP3 SWAP2 SWAP1 DUP2 DUP2 MSTORE PUSH1 0x20 ADD DUP3 DUP1 SLOAD PUSH2 0xF7A SWAP1 PUSH2 0x21E8 JUMP JUMPDEST DUP1 ISZERO PUSH2 0xFC5 JUMPI DUP1 PUSH1 0x1F LT PUSH2 0xF9C JUMPI PUSH2 0x100 DUP1 DUP4 SLOAD DIV MUL DUP4 MSTORE SWAP2 PUSH1 0x20 ADD SWAP2 PUSH2 0xFC5 JUMP JUMPDEST DUP3 ADD SWAP2 SWAP1 PUSH0 MSTORE PUSH1 0x20 PUSH0 KECCAK256 SWAP1 JUMPDEST DUP2 SLOAD DUP2 MSTORE SWAP1 PUSH1 0x1 ADD SWAP1 PUSH1 0x20 ADD DUP1 DUP4 GT PUSH2 0xFA8 JUMPI DUP3 SWAP1 SUB PUSH1 0x1F AND DUP3 ADD SWAP2 JUMPDEST POP POP POP POP POP SWAP1 DUP1 PUSH1 0x4 ADD SLOAD SWAP1 DUP1 PUSH1 0x5 ADD PUSH0 SWAP1 SLOAD SWAP1 PUSH2 0x100 EXP SWAP1 DIV PUSH20 0xFFFFFFFFFFFFFFFFFFFFFFFFFFFFFFFFFFFFFFFF AND SWAP1 DUP1 PUSH1 0x6 ADD DUP1 SLOAD PUSH2 0x1005 SWAP1 PUSH2 0x21E8 JUMP JUMPDEST DUP1 PUSH1 0x1F ADD PUSH1 0x20 DUP1 SWAP2 DIV MUL PUSH1 0x20 ADD PUSH1 0x40 MLOAD SWAP1 DUP2 ADD PUSH1 0x40 MSTORE DUP1 SWAP3 SWAP2 SWAP1 DUP2 DUP2 MSTORE PUSH1 0x20 ADD DUP3 DUP1 SLOAD PUSH2 0x1031 SWAP1 PUSH2 0x21E8 JUMP JUMPDEST DUP1 ISZERO PUSH2 0x107C JUMPI DUP1 PUSH1 0x1F LT PUSH2 0x1053 JUMPI PUSH2 0x100 DUP1 DUP4 SLOAD DIV MUL DUP4 MSTORE SWAP2 PUSH1 0x20 ADD SWAP2 PUSH2 0x107C JUMP JUMPDEST DUP3 ADD SWAP2 SWAP1 PUSH0 MSTORE PUSH1 0x20 PUSH0 KECCAK256 SWAP1 JUMPDEST DUP2 SLOAD DUP2 MSTORE SWAP1 PUSH1 0x1 ADD SWAP1 PUSH1 0x20 ADD DUP1 DUP4 GT PUSH2 0x105F JUMPI DUP3 SWAP1 SUB PUSH1 0x1F AND DUP3 ADD SWAP2 JUMPDEST POP POP POP POP POP SWAP1 POP DUP8 JUMP JUMPDEST PUSH0 PUSH1 0x60 DUP1 PUSH0 PUSH1 0x60 PUSH0 DUP1 PUSH1 0x7 PUSH0 DUP10 PUSH20 0xFFFFFFFFFFFFFFFFFFFFFFFFFFFFFFFFFFFFFFFF AND PUSH20 0xFFFFFFFFFFFFFFFFFFFFFFFFFFFFFFFFFFFFFFFF AND DUP2 MSTORE PUSH1 0x20 ADD SWAP1 DUP2 MSTORE PUSH1 0x20 ADD PUSH0 KECCAK256 PUSH0 ADD SLOAD PUSH1 0x7 PUSH0 DUP11 PUSH20 0xFFFFFFFFFFFFFFFFFFFFFFFFFFFFFFFFFFFFFFFF AND PUSH20 0xFFFFFFFFFFFFFFFFFFFFFFFFFFFFFFFFFFFFFFFF AND DUP2 MSTORE PUSH1 0x20 ADD SWAP1 DUP2 MSTORE PUSH1 0x20 ADD PUSH0 KECCAK256 PUSH1 0x1 ADD PUSH1 0x7 PUSH0 DUP12 PUSH20 0xFFFFFFFFFFFFFFFFFFFFFFFFFFFFFFFFFFFFFFFF AND PUSH20 0xFFFFFFFFFFFFFFFFFFFFFFFFFFFFFFFFFFFFFFFF AND DUP2 MSTORE PUSH1 0x20 ADD SWAP1 DUP2 MSTORE PUSH1 0x20 ADD PUSH0 KECCAK256 PUSH1 0x2 ADD PUSH1 0x7 PUSH0 DUP13 PUSH20 0xFFFFFFFFFFFFFFFFFFFFFFFFFFFFFFFFFFFFFFFF AND PUSH20 0xFFFFFFFFFFFFFFFFFFFFFFFFFFFFFFFFFFFFFFFF AND DUP2 MSTORE PUSH1 0x20 ADD SWAP1 DUP2 MSTORE PUSH1 0x20 ADD PUSH0 KECCAK256 PUSH1 0x3 ADD PUSH0 SWAP1 SLOAD SWAP1 PUSH2 0x100 EXP SWAP1 DIV PUSH20 0xFFFFFFFFFFFFFFFFFFFFFFFFFFFFFFFFFFFFFFFF AND PUSH1 0x7 PUSH0 DUP14 PUSH20 0xFFFFFFFFFFFFFFFFFFFFFFFFFFFFFFFFFFFFFFFF AND PUSH20 0xFFFFFFFFFFFFFFFFFFFFFFFFFFFFFFFFFFFFFFFF AND DUP2 MSTORE PUSH1 0x20 ADD SWAP1 DUP2 MSTORE PUSH1 0x20 ADD PUSH0 KECCAK256 PUSH1 0x7 ADD PUSH1 0x7 PUSH0 DUP15 PUSH20 0xFFFFFFFFFFFFFFFFFFFFFFFFFFFFFFFFFFFFFFFF AND PUSH20 0xFFFFFFFFFFFFFFFFFFFFFFFFFFFFFFFFFFFFFFFF AND DUP2 MSTORE PUSH1 0x20 ADD SWAP1 DUP2 MSTORE PUSH1 0x20 ADD PUSH0 KECCAK256 PUSH1 0x4 ADD SLOAD PUSH1 0x7 PUSH0 DUP16 PUSH20 0xFFFFFFFFFFFFFFFFFFFFFFFFFFFFFFFFFFFFFFFF AND PUSH20 0xFFFFFFFFFFFFFFFFFFFFFFFFFFFFFFFFFFFFFFFF AND DUP2 MSTORE PUSH1 0x20 ADD SWAP1 DUP2 MSTORE PUSH1 0x20 ADD PUSH0 KECCAK256 PUSH1 0x5 ADD PUSH0 SWAP1 SLOAD SWAP1 PUSH2 0x100 EXP SWAP1 DIV PUSH1 0xFF AND DUP6 DUP1 SLOAD PUSH2 0x1289 SWAP1 PUSH2 0x21E8 JUMP JUMPDEST DUP1 PUSH1 0x1F ADD PUSH1 0x20 DUP1 SWAP2 DIV MUL PUSH1 0x20 ADD PUSH1 0x40 MLOAD SWAP1 DUP2 ADD PUSH1 0x40 MSTORE DUP1 SWAP3 SWAP2 SWAP1 DUP2 DUP2 MSTORE PUSH1 0x20 ADD DUP3 DUP1 SLOAD PUSH2 0x12B5 SWAP1 PUSH2 0x21E8 JUMP JUMPDEST DUP1 ISZERO PUSH2 0x1300 JUMPI DUP1 PUSH1 0x1F LT PUSH2 0x12D7 JUMPI PUSH2 0x100 DUP1 DUP4 SLOAD DIV MUL DUP4 MSTORE SWAP2 PUSH1 0x20 ADD SWAP2 PUSH2 0x1300 JUMP JUMPDEST DUP3 ADD SWAP2 SWAP1 PUSH0 MSTORE PUSH1 0x20 PUSH0 KECCAK256 SWAP1 JUMPDEST DUP2 SLOAD DUP2 MSTORE SWAP1 PUSH1 0x1 ADD SWAP1 PUSH1 0x20 ADD DUP1 DUP4 GT PUSH2 0x12E3 JUMPI DUP3 SWAP1 SUB PUSH1 0x1F AND DUP3 ADD SWAP2 JUMPDEST POP POP POP POP POP SWAP6 POP DUP5 DUP1 SLOAD PUSH2 0x1313 SWAP1 PUSH2 0x21E8 JUMP JUMPDEST DUP1 PUSH1 0x1F ADD PUSH1 0x20 DUP1 SWAP2 DIV MUL PUSH1 0x20 ADD PUSH1 0x40 MLOAD SWAP1 DUP2 ADD PUSH1 0x40 MSTORE DUP1 SWAP3 SWAP2 SWAP1 DUP2 DUP2 MSTORE PUSH1 0x20 ADD DUP3 DUP1 SLOAD PUSH2 0x133F SWAP1 PUSH2 0x21E8 JUMP JUMPDEST DUP1 ISZERO PUSH2 0x138A JUMPI DUP1 PUSH1 0x1F LT PUSH2 0x1361 JUMPI PUSH2 0x100 DUP1 DUP4 SLOAD DIV MUL DUP4 MSTORE SWAP2 PUSH1 0x20 ADD SWAP2 PUSH2 0x138A JUMP JUMPDEST DUP3 ADD SWAP2 SWAP1 PUSH0 MSTORE PUSH1 0x20 PUSH0 KECCAK256 SWAP1 JUMPDEST DUP2 SLOAD DUP2 MSTORE SWAP1 PUSH1 0x1 ADD SWAP1 PUSH1 0x20 ADD DUP1 DUP4 GT PUSH2 0x136D JUMPI DUP3 SWAP1 SUB PUSH1 0x1F AND DUP3 ADD SWAP2 JUMPDEST POP POP POP POP POP SWAP5 POP DUP3 DUP1 SLOAD PUSH2 0x139D SWAP1 PUSH2 0x21E8 JUMP JUMPDEST DUP1 PUSH1 0x1F ADD PUSH1 0x20 DUP1 SWAP2 DIV MUL PUSH1 0x20 ADD PUSH1 0x40 MLOAD SWAP1 DUP2 ADD PUSH1 0x40 MSTORE DUP1 SWAP3 SWAP2 SWAP1 DUP2 DUP2 MSTORE PUSH1 0x20 ADD DUP3 DUP1 SLOAD PUSH2 0x13C9 SWAP1 PUSH2 0x21E8 JUMP JUMPDEST DUP1 ISZERO PUSH2 0x1414 JUMPI DUP1 PUSH1 0x1F LT PUSH2 0x13EB JUMPI PUSH2 0x100 DUP1 DUP4 SLOAD DIV MUL DUP4 MSTORE SWAP2 PUSH1 0x20 ADD SWAP2 PUSH2 0x1414 JUMP JUMPDEST DUP3 ADD SWAP2 SWAP1 PUSH0 MSTORE PUSH1 0x20 PUSH0 KECCAK256 SWAP1 JUMPDEST DUP2 SLOAD DUP2 MSTORE SWAP1 PUSH1 0x1 ADD SWAP1 PUSH1 0x20 ADD DUP1 DUP4 GT PUSH2 0x13F7 JUMPI DUP3 SWAP1 SUB PUSH1 0x1F AND DUP3 ADD SWAP2 JUMPDEST POP POP POP POP POP SWAP3 POP SWAP7 POP SWAP7 POP SWAP7 POP SWAP7 POP SWAP7 POP SWAP7 POP SWAP7 POP SWAP2 SWAP4 SWAP6 SWAP8 SWAP1 SWAP3 SWAP5 SWAP7 POP JUMP JUMPDEST PUSH1 0x7 PUSH1 0x20 MSTORE DUP1 PUSH0 MSTORE PUSH1 0x40 PUSH0 KECCAK256 PUSH0 SWAP2 POP SWAP1 POP DUP1 PUSH0 ADD SLOAD SWAP1 DUP1 PUSH1 0x1 ADD DUP1 SLOAD PUSH2 0x1459 SWAP1 PUSH2 0x21E8 JUMP JUMPDEST DUP1 PUSH1 0x1F ADD PUSH1 0x20 DUP1 SWAP2 DIV MUL PUSH1 0x20 ADD PUSH1 0x40 MLOAD SWAP1 DUP2 ADD PUSH1 0x40 MSTORE DUP1 SWAP3 SWAP2 SWAP1 DUP2 DUP2 MSTORE PUSH1 0x20 ADD DUP3 DUP1 SLOAD PUSH2 0x1485 SWAP1 PUSH2 0x21E8 JUMP JUMPDEST DUP1 ISZERO PUSH2 0x14D0 JUMPI DUP1 PUSH1 0x1F LT PUSH2 0x14A7 JUMPI PUSH2 0x100 DUP1 DUP4 SLOAD DIV MUL DUP4 MSTORE SWAP2 PUSH1 0x20 ADD SWAP2 PUSH2 0x14D0 JUMP JUMPDEST DUP3 ADD SWAP2 SWAP1 PUSH0 MSTORE PUSH1 0x20 PUSH0 KECCAK256 SWAP1 JUMPDEST DUP2 SLOAD DUP2 MSTORE SWAP1 PUSH1 0x1 ADD SWAP1 PUSH1 0x20 ADD DUP1 DUP4 GT PUSH2 0x14B3 JUMPI DUP3 SWAP1 SUB PUSH1 0x1F AND DUP3 ADD SWAP2 JUMPDEST POP POP POP POP POP SWAP1 DUP1 PUSH1 0x2 ADD DUP1 SLOAD PUSH2 0x14E5 SWAP1 PUSH2 0x21E8 JUMP JUMPDEST DUP1 PUSH1 0x1F ADD PUSH1 0x20 DUP1 SWAP2 DIV MUL PUSH1 0x20 ADD PUSH1 0x40 MLOAD SWAP1 DUP2 ADD PUSH1 0x40 MSTORE DUP1 SWAP3 SWAP2 SWAP1 DUP2 DUP2 MSTORE PUSH1 0x20 ADD DUP3 DUP1 SLOAD PUSH2 0x1511 SWAP1 PUSH2 0x21E8 JUMP JUMPDEST DUP1 ISZERO PUSH2 0x155C JUMPI DUP1 PUSH1 0x1F LT PUSH2 0x1533 JUMPI PUSH2 0x100 DUP1 DUP4 SLOAD DIV MUL DUP4 MSTORE SWAP2 PUSH1 0x20 ADD SWAP2 PUSH2 0x155C JUMP JUMPDEST DUP3 ADD SWAP2 SWAP1 PUSH0 MSTORE PUSH1 0x20 PUSH0 KECCAK256 SWAP1 JUMPDEST DUP2 SLOAD DUP2 MSTORE SWAP1 PUSH1 0x1 ADD SWAP1 PUSH1 0x20 ADD DUP1 DUP4 GT PUSH2 0x153F JUMPI DUP3 SWAP1 SUB PUSH1 0x1F AND DUP3 ADD SWAP2 JUMPDEST POP POP POP POP POP SWAP1 DUP1 PUSH1 0x3 ADD PUSH0 SWAP1 SLOAD SWAP1 PUSH2 0x100 EXP SWAP1 DIV PUSH20 0xFFFFFFFFFFFFFFFFFFFFFFFFFFFFFFFFFFFFFFFF AND SWAP1 DUP1 PUSH1 0x4 ADD SLOAD SWAP1 DUP1 PUSH1 0x5 ADD PUSH0 SWAP1 SLOAD SWAP1 PUSH2 0x100 EXP SWAP1 DIV PUSH1 0xFF AND SWAP1 DUP1 PUSH1 0x6 ADD SLOAD SWAP1 DUP1 PUSH1 0x7 ADD DUP1 SLOAD PUSH2 0x15B4 SWAP1 PUSH2 0x21E8 JUMP JUMPDEST DUP1 PUSH1 0x1F ADD PUSH1 0x20 DUP1 SWAP2 DIV MUL PUSH1 0x20 ADD PUSH1 0x40 MLOAD SWAP1 DUP2 ADD PUSH1 0x40 MSTORE DUP1 SWAP3 SWAP2 SWAP1 DUP2 DUP2 MSTORE PUSH1 0x20 ADD DUP3 DUP1 SLOAD PUSH2 0x15E0 SWAP1 PUSH2 0x21E8 JUMP JUMPDEST DUP1 ISZERO PUSH2 0x162B JUMPI DUP1 PUSH1 0x1F LT PUSH2 0x1602 JUMPI PUSH2 0x100 DUP1 DUP4 SLOAD DIV MUL DUP4 MSTORE SWAP2 PUSH1 0x20 ADD SWAP2 PUSH2 0x162B JUMP JUMPDEST DUP3 ADD SWAP2 SWAP1 PUSH0 MSTORE PUSH1 0x20 PUSH0 KECCAK256 SWAP1 JUMPDEST DUP2 SLOAD DUP2 MSTORE SWAP1 PUSH1 0x1 ADD SWAP1 PUSH1 0x20 ADD DUP1 DUP4 GT PUSH2 0x160E JUMPI DUP3 SWAP1 SUB PUSH1 0x1F AND DUP3 ADD SWAP2 JUMPDEST POP POP POP POP POP SWAP1 POP DUP9 JUMP JUMPDEST PUSH1 0x1 DUP1 PUSH0 ADD SLOAD SWAP1 POP DUP2 JUMP JUMPDEST PUSH1 0x60 PUSH1 0x6 DUP1 SLOAD DUP1 PUSH1 0x20 MUL PUSH1 0x20 ADD PUSH1 0x40 MLOAD SWAP1 DUP2 ADD PUSH1 0x40 MSTORE DUP1 SWAP3 SWAP2 SWAP1 DUP2 DUP2 MSTORE PUSH1 0x20 ADD DUP3 DUP1 SLOAD DUP1 ISZERO PUSH2 0x16C1 JUMPI PUSH1 0x20 MUL DUP3 ADD SWAP2 SWAP1 PUSH0 MSTORE PUSH1 0x20 PUSH0 KECCAK256 SWAP1 JUMPDEST DUP2 PUSH0 SWAP1 SLOAD SWAP1 PUSH2 0x100 EXP SWAP1 DIV PUSH20 0xFFFFFFFFFFFFFFFFFFFFFFFFFFFFFFFFFFFFFFFF AND PUSH20 0xFFFFFFFFFFFFFFFFFFFFFFFFFFFFFFFFFFFFFFFF AND DUP2 MSTORE PUSH1 0x20 ADD SWAP1 PUSH1 0x1 ADD SWAP1 DUP1 DUP4 GT PUSH2 0x1678 JUMPI JUMPDEST POP POP POP POP POP SWAP1 POP SWAP1 JUMP JUMPDEST PUSH0 DUP1 PUSH0 ADD SLOAD SWAP1 POP DUP2 JUMP JUMPDEST CALLER PUSH20 0xFFFFFFFFFFFFFFFFFFFFFFFFFFFFFFFFFFFFFFFF AND PUSH1 0x2 PUSH0 SWAP1 SLOAD SWAP1 PUSH2 0x100 EXP SWAP1 DIV PUSH20 0xFFFFFFFFFFFFFFFFFFFFFFFFFFFFFFFFFFFFFFFF AND PUSH20 0xFFFFFFFFFFFFFFFFFFFFFFFFFFFFFFFFFFFFFFFF AND EQ PUSH2 0x1764 JUMPI PUSH1 0x40 MLOAD PUSH32 0x8C379A000000000000000000000000000000000000000000000000000000000 DUP2 MSTORE PUSH1 0x4 ADD PUSH2 0x175B SWAP1 PUSH2 0x2727 JUMP JUMPDEST PUSH1 0x40 MLOAD DUP1 SWAP2 SUB SWAP1 REVERT JUMPDEST PUSH2 0x176E PUSH1 0x1 PUSH2 0x193A JUMP JUMPDEST PUSH0 PUSH2 0x1779 PUSH1 0x1 PUSH2 0x194E JUMP JUMPDEST SWAP1 POP PUSH0 PUSH1 0x4 PUSH0 DUP9 PUSH20 0xFFFFFFFFFFFFFFFFFFFFFFFFFFFFFFFFFFFFFFFF AND PUSH20 0xFFFFFFFFFFFFFFFFFFFFFFFFFFFFFFFFFFFFFFFF AND DUP2 MSTORE PUSH1 0x20 ADD SWAP1 DUP2 MSTORE PUSH1 0x20 ADD PUSH0 KECCAK256 SWAP1 POP DUP6 DUP2 PUSH1 0x1 ADD SWAP1 DUP2 PUSH2 0x17CC SWAP2 SWAP1 PUSH2 0x23B5 JUMP JUMPDEST POP DUP5 DUP2 PUSH1 0x2 ADD SWAP1 DUP2 PUSH2 0x17DE SWAP2 SWAP1 PUSH2 0x23B5 JUMP JUMPDEST POP DUP2 DUP2 PUSH0 ADD DUP2 SWAP1 SSTORE POP DUP4 DUP2 PUSH1 0x3 ADD SWAP1 DUP2 PUSH2 0x17F8 SWAP2 SWAP1 PUSH2 0x23B5 JUMP JUMPDEST POP PUSH0 DUP2 PUSH1 0x4 ADD DUP2 SWAP1 SSTORE POP DUP7 DUP2 PUSH1 0x5 ADD PUSH0 PUSH2 0x100 EXP DUP2 SLOAD DUP2 PUSH20 0xFFFFFFFFFFFFFFFFFFFFFFFFFFFFFFFFFFFFFFFF MUL NOT AND SWAP1 DUP4 PUSH20 0xFFFFFFFFFFFFFFFFFFFFFFFFFFFFFFFFFFFFFFFF AND MUL OR SWAP1 SSTORE POP DUP3 DUP2 PUSH1 0x6 ADD SWAP1 DUP2 PUSH2 0x1855 SWAP2 SWAP1 PUSH2 0x23B5 JUMP JUMPDEST POP PUSH1 0x3 DUP8 SWAP1 DUP1 PUSH1 0x1 DUP2 SLOAD ADD DUP1 DUP3 SSTORE DUP1 SWAP2 POP POP PUSH1 0x1 SWAP1 SUB SWAP1 PUSH0 MSTORE PUSH1 0x20 PUSH0 KECCAK256 ADD PUSH0 SWAP1 SWAP2 SWAP1 SWAP2 SWAP1 SWAP2 PUSH2 0x100 EXP DUP2 SLOAD DUP2 PUSH20 0xFFFFFFFFFFFFFFFFFFFFFFFFFFFFFFFFFFFFFFFF MUL NOT AND SWAP1 DUP4 PUSH20 0xFFFFFFFFFFFFFFFFFFFFFFFFFFFFFFFFFFFFFFFF AND MUL OR SWAP1 SSTORE POP DUP1 PUSH0 ADD SLOAD PUSH32 0xD297F12B256BB8485A6013FB5E302017018123E99A0EBB20756C09E1707B4B90 DUP8 DUP8 DUP8 DUP6 PUSH1 0x4 ADD SLOAD DUP7 PUSH1 0x5 ADD PUSH0 SWAP1 SLOAD SWAP1 PUSH2 0x100 EXP SWAP1 DIV PUSH20 0xFFFFFFFFFFFFFFFFFFFFFFFFFFFFFFFFFFFFFFFF AND DUP8 PUSH1 0x6 ADD PUSH1 0x40 MLOAD PUSH2 0x191D SWAP7 SWAP6 SWAP5 SWAP4 SWAP3 SWAP2 SWAP1 PUSH2 0x2745 JUMP JUMPDEST PUSH1 0x40 MLOAD DUP1 SWAP2 SUB SWAP1 LOG2 POP POP POP POP POP POP POP JUMP JUMPDEST PUSH0 PUSH1 0x3 DUP1 SLOAD SWAP1 POP SWAP1 POP SWAP1 JUMP JUMPDEST PUSH1 0x1 DUP2 PUSH0 ADD PUSH0 DUP3 DUP3 SLOAD ADD SWAP3 POP POP DUP2 SWAP1 SSTORE POP POP JUMP JUMPDEST PUSH0 DUP2 PUSH0 ADD SLOAD SWAP1 POP SWAP2 SWAP1 POP JUMP JUMPDEST PUSH0 PUSH1 0x40 MLOAD SWAP1 POP SWAP1 JUMP JUMPDEST PUSH0 DUP1 REVERT JUMPDEST PUSH0 DUP1 REVERT JUMPDEST PUSH0 PUSH20 0xFFFFFFFFFFFFFFFFFFFFFFFFFFFFFFFFFFFFFFFF DUP3 AND SWAP1 POP SWAP2 SWAP1 POP JUMP JUMPDEST PUSH0 PUSH2 0x1994 DUP3 PUSH2 0x196B JUMP JUMPDEST SWAP1 POP SWAP2 SWAP1 POP JUMP JUMPDEST PUSH2 0x19A4 DUP2 PUSH2 0x198A JUMP JUMPDEST DUP2 EQ PUSH2 0x19AE JUMPI PUSH0 DUP1 REVERT JUMPDEST POP JUMP JUMPDEST PUSH0 DUP2 CALLDATALOAD SWAP1 POP PUSH2 0x19BF DUP2 PUSH2 0x199B JUMP JUMPDEST SWAP3 SWAP2 POP POP JUMP JUMPDEST PUSH0 DUP1 REVERT JUMPDEST PUSH0 DUP1 REVERT JUMPDEST PUSH0 PUSH1 0x1F NOT PUSH1 0x1F DUP4 ADD AND SWAP1 POP SWAP2 SWAP1 POP JUMP JUMPDEST PUSH32 0x4E487B7100000000000000000000000000000000000000000000000000000000 PUSH0 MSTORE PUSH1 0x41 PUSH1 0x4 MSTORE PUSH1 0x24 PUSH0 REVERT JUMPDEST PUSH2 0x1A13 DUP3 PUSH2 0x19CD JUMP JUMPDEST DUP2 ADD DUP2 DUP2 LT PUSH8 0xFFFFFFFFFFFFFFFF DUP3 GT OR ISZERO PUSH2 0x1A32 JUMPI PUSH2 0x1A31 PUSH2 0x19DD JUMP JUMPDEST JUMPDEST DUP1 PUSH1 0x40 MSTORE POP POP POP JUMP JUMPDEST PUSH0 PUSH2 0x1A44 PUSH2 0x195A JUMP JUMPDEST SWAP1 POP PUSH2 0x1A50 DUP3 DUP3 PUSH2 0x1A0A JUMP JUMPDEST SWAP2 SWAP1 POP JUMP JUMPDEST PUSH0 PUSH8 0xFFFFFFFFFFFFFFFF DUP3 GT ISZERO PUSH2 0x1A6F JUMPI PUSH2 0x1A6E PUSH2 0x19DD JUMP JUMPDEST JUMPDEST PUSH2 0x1A78 DUP3 PUSH2 0x19CD JUMP JUMPDEST SWAP1 POP PUSH1 0x20 DUP2 ADD SWAP1 POP SWAP2 SWAP1 POP JUMP JUMPDEST DUP3 DUP2 DUP4 CALLDATACOPY PUSH0 DUP4 DUP4 ADD MSTORE POP POP POP JUMP JUMPDEST PUSH0 PUSH2 0x1AA5 PUSH2 0x1AA0 DUP5 PUSH2 0x1A55 JUMP JUMPDEST PUSH2 0x1A3B JUMP JUMPDEST SWAP1 POP DUP3 DUP2 MSTORE PUSH1 0x20 DUP2 ADD DUP5 DUP5 DUP5 ADD GT ISZERO PUSH2 0x1AC1 JUMPI PUSH2 0x1AC0 PUSH2 0x19C9 JUMP JUMPDEST JUMPDEST PUSH2 0x1ACC DUP5 DUP3 DUP6 PUSH2 0x1A85 JUMP JUMPDEST POP SWAP4 SWAP3 POP POP POP JUMP JUMPDEST PUSH0 DUP3 PUSH1 0x1F DUP4 ADD SLT PUSH2 0x1AE8 JUMPI PUSH2 0x1AE7 PUSH2 0x19C5 JUMP JUMPDEST JUMPDEST DUP2 CALLDATALOAD PUSH2 0x1AF8 DUP5 DUP3 PUSH1 0x20 DUP7 ADD PUSH2 0x1A93 JUMP JUMPDEST SWAP2 POP POP SWAP3 SWAP2 POP POP JUMP JUMPDEST PUSH0 DUP1 PUSH0 DUP1 PUSH1 0x80 DUP6 DUP8 SUB SLT ISZERO PUSH2 0x1B19 JUMPI PUSH2 0x1B18 PUSH2 0x1963 JUMP JUMPDEST JUMPDEST PUSH0 PUSH2 0x1B26 DUP8 DUP3 DUP9 ADD PUSH2 0x19B1 JUMP JUMPDEST SWAP5 POP POP PUSH1 0x20 DUP6 ADD CALLDATALOAD PUSH8 0xFFFFFFFFFFFFFFFF DUP2 GT ISZERO PUSH2 0x1B47 JUMPI PUSH2 0x1B46 PUSH2 0x1967 JUMP JUMPDEST JUMPDEST PUSH2 0x1B53 DUP8 DUP3 DUP9 ADD PUSH2 0x1AD4 JUMP JUMPDEST SWAP4 POP POP PUSH1 0x40 DUP6 ADD CALLDATALOAD PUSH8 0xFFFFFFFFFFFFFFFF DUP2 GT ISZERO PUSH2 0x1B74 JUMPI PUSH2 0x1B73 PUSH2 0x1967 JUMP JUMPDEST JUMPDEST PUSH2 0x1B80 DUP8 DUP3 DUP9 ADD PUSH2 0x1AD4 JUMP JUMPDEST SWAP3 POP POP PUSH1 0x60 DUP6 ADD CALLDATALOAD PUSH8 0xFFFFFFFFFFFFFFFF DUP2 GT ISZERO PUSH2 0x1BA1 JUMPI PUSH2 0x1BA0 PUSH2 0x1967 JUMP JUMPDEST JUMPDEST PUSH2 0x1BAD DUP8 DUP3 DUP9 ADD PUSH2 0x1AD4 JUMP JUMPDEST SWAP2 POP POP SWAP3 SWAP6 SWAP2 SWAP5 POP SWAP3 POP JUMP JUMPDEST PUSH0 DUP2 SWAP1 POP SWAP2 SWAP1 POP JUMP JUMPDEST PUSH2 0x1BCB DUP2 PUSH2 0x1BB9 JUMP JUMPDEST DUP3 MSTORE POP POP JUMP JUMPDEST PUSH0 PUSH1 0x20 DUP3 ADD SWAP1 POP PUSH2 0x1BE4 PUSH0 DUP4 ADD DUP5 PUSH2 0x1BC2 JUMP JUMPDEST SWAP3 SWAP2 POP POP JUMP JUMPDEST PUSH0 DUP2 MLOAD SWAP1 POP SWAP2 SWAP1 POP JUMP JUMPDEST PUSH0 DUP3 DUP3 MSTORE PUSH1 0x20 DUP3 ADD SWAP1 POP SWAP3 SWAP2 POP POP JUMP JUMPDEST PUSH0 DUP2 SWAP1 POP PUSH1 0x20 DUP3 ADD SWAP1 POP SWAP2 SWAP1 POP JUMP JUMPDEST PUSH2 0x1C1C DUP2 PUSH2 0x198A JUMP JUMPDEST DUP3 MSTORE POP POP JUMP JUMPDEST PUSH0 PUSH2 0x1C2D DUP4 DUP4 PUSH2 0x1C13 JUMP JUMPDEST PUSH1 0x20 DUP4 ADD SWAP1 POP SWAP3 SWAP2 POP POP JUMP JUMPDEST PUSH0 PUSH1 0x20 DUP3 ADD SWAP1 POP SWAP2 SWAP1 POP JUMP JUMPDEST PUSH0 PUSH2 0x1C4F DUP3 PUSH2 0x1BEA JUMP JUMPDEST PUSH2 0x1C59 DUP2 DUP6 PUSH2 0x1BF4 JUMP JUMPDEST SWAP4 POP PUSH2 0x1C64 DUP4 PUSH2 0x1C04 JUMP JUMPDEST DUP1 PUSH0 JUMPDEST DUP4 DUP2 LT ISZERO PUSH2 0x1C94 JUMPI DUP2 MLOAD PUSH2 0x1C7B DUP9 DUP3 PUSH2 0x1C22 JUMP JUMPDEST SWAP8 POP PUSH2 0x1C86 DUP4 PUSH2 0x1C39 JUMP JUMPDEST SWAP3 POP POP PUSH1 0x1 DUP2 ADD SWAP1 POP PUSH2 0x1C67 JUMP JUMPDEST POP DUP6 SWAP4 POP POP POP POP SWAP3 SWAP2 POP POP JUMP JUMPDEST PUSH0 PUSH1 0x20 DUP3 ADD SWAP1 POP DUP2 DUP2 SUB PUSH0 DUP4 ADD MSTORE PUSH2 0x1CB9 DUP2 DUP5 PUSH2 0x1C45 JUMP JUMPDEST SWAP1 POP SWAP3 SWAP2 POP POP JUMP JUMPDEST PUSH0 PUSH1 0x20 DUP3 DUP5 SUB SLT ISZERO PUSH2 0x1CD6 JUMPI PUSH2 0x1CD5 PUSH2 0x1963 JUMP JUMPDEST JUMPDEST PUSH0 PUSH2 0x1CE3 DUP5 DUP3 DUP6 ADD PUSH2 0x19B1 JUMP JUMPDEST SWAP2 POP POP SWAP3 SWAP2 POP POP JUMP JUMPDEST PUSH0 DUP2 MLOAD SWAP1 POP SWAP2 SWAP1 POP JUMP JUMPDEST PUSH0 DUP3 DUP3 MSTORE PUSH1 0x20 DUP3 ADD SWAP1 POP SWAP3 SWAP2 POP POP JUMP JUMPDEST DUP3 DUP2 DUP4 MCOPY PUSH0 DUP4 DUP4 ADD MSTORE POP POP POP JUMP JUMPDEST PUSH0 PUSH2 0x1D1E DUP3 PUSH2 0x1CEC JUMP JUMPDEST PUSH2 0x1D28 DUP2 DUP6 PUSH2 0x1CF6 JUMP JUMPDEST SWAP4 POP PUSH2 0x1D38 DUP2 DUP6 PUSH1 0x20 DUP7 ADD PUSH2 0x1D06 JUMP JUMPDEST PUSH2 0x1D41 DUP2 PUSH2 0x19CD JUMP JUMPDEST DUP5 ADD SWAP2 POP POP SWAP3 SWAP2 POP POP JUMP JUMPDEST PUSH2 0x1D55 DUP2 PUSH2 0x198A JUMP JUMPDEST DUP3 MSTORE POP POP JUMP JUMPDEST PUSH0 PUSH1 0xE0 DUP3 ADD SWAP1 POP DUP2 DUP2 SUB PUSH0 DUP4 ADD MSTORE PUSH2 0x1D73 DUP2 DUP11 PUSH2 0x1D14 JUMP JUMPDEST SWAP1 POP DUP2 DUP2 SUB PUSH1 0x20 DUP4 ADD MSTORE PUSH2 0x1D87 DUP2 DUP10 PUSH2 0x1D14 JUMP JUMPDEST SWAP1 POP PUSH2 0x1D96 PUSH1 0x40 DUP4 ADD DUP9 PUSH2 0x1BC2 JUMP JUMPDEST DUP2 DUP2 SUB PUSH1 0x60 DUP4 ADD MSTORE PUSH2 0x1DA8 DUP2 DUP8 PUSH2 0x1D14 JUMP JUMPDEST SWAP1 POP PUSH2 0x1DB7 PUSH1 0x80 DUP4 ADD DUP7 PUSH2 0x1BC2 JUMP JUMPDEST DUP2 DUP2 SUB PUSH1 0xA0 DUP4 ADD MSTORE PUSH2 0x1DC9 DUP2 DUP6 PUSH2 0x1D14 JUMP JUMPDEST SWAP1 POP PUSH2 0x1DD8 PUSH1 0xC0 DUP4 ADD DUP5 PUSH2 0x1D4C JUMP JUMPDEST SWAP9 SWAP8 POP POP POP POP POP POP POP POP JUMP JUMPDEST PUSH2 0x1DED DUP2 PUSH2 0x1BB9 JUMP JUMPDEST DUP2 EQ PUSH2 0x1DF7 JUMPI PUSH0 DUP1 REVERT JUMPDEST POP JUMP JUMPDEST PUSH0 DUP2 CALLDATALOAD SWAP1 POP PUSH2 0x1E08 DUP2 PUSH2 0x1DE4 JUMP JUMPDEST SWAP3 SWAP2 POP POP JUMP JUMPDEST PUSH0 PUSH1 0x20 DUP3 DUP5 SUB SLT ISZERO PUSH2 0x1E23 JUMPI PUSH2 0x1E22 PUSH2 0x1963 JUMP JUMPDEST JUMPDEST PUSH0 PUSH2 0x1E30 DUP5 DUP3 DUP6 ADD PUSH2 0x1DFA JUMP JUMPDEST SWAP2 POP POP SWAP3 SWAP2 POP POP JUMP JUMPDEST PUSH0 PUSH1 0x20 DUP3 ADD SWAP1 POP PUSH2 0x1E4C PUSH0 DUP4 ADD DUP5 PUSH2 0x1D4C JUMP JUMPDEST SWAP3 SWAP2 POP POP JUMP JUMPDEST PUSH0 DUP1 PUSH1 0x40 DUP4 DUP6 SUB SLT ISZERO PUSH2 0x1E68 JUMPI PUSH2 0x1E67 PUSH2 0x1963 JUMP JUMPDEST JUMPDEST PUSH0 PUSH2 0x1E75 DUP6 DUP3 DUP7 ADD PUSH2 0x19B1 JUMP JUMPDEST SWAP3 POP POP PUSH1 0x20 PUSH2 0x1E86 DUP6 DUP3 DUP7 ADD PUSH2 0x1DFA JUMP JUMPDEST SWAP2 POP POP SWAP3 POP SWAP3 SWAP1 POP JUMP JUMPDEST PUSH0 PUSH1 0xE0 DUP3 ADD SWAP1 POP PUSH2 0x1EA3 PUSH0 DUP4 ADD DUP11 PUSH2 0x1BC2 JUMP JUMPDEST DUP2 DUP2 SUB PUSH1 0x20 DUP4 ADD MSTORE PUSH2 0x1EB5 DUP2 DUP10 PUSH2 0x1D14 JUMP JUMPDEST SWAP1 POP DUP2 DUP2 SUB PUSH1 0x40 DUP4 ADD MSTORE PUSH2 0x1EC9 DUP2 DUP9 PUSH2 0x1D14 JUMP JUMPDEST SWAP1 POP DUP2 DUP2 SUB PUSH1 0x60 DUP4 ADD MSTORE PUSH2 0x1EDD DUP2 DUP8 PUSH2 0x1D14 JUMP JUMPDEST SWAP1 POP PUSH2 0x1EEC PUSH1 0x80 DUP4 ADD DUP7 PUSH2 0x1BC2 JUMP JUMPDEST PUSH2 0x1EF9 PUSH1 0xA0 DUP4 ADD DUP6 PUSH2 0x1D4C JUMP JUMPDEST DUP2 DUP2 SUB PUSH1 0xC0 DUP4 ADD MSTORE PUSH2 0x1F0B DUP2 DUP5 PUSH2 0x1D14 JUMP JUMPDEST SWAP1 POP SWAP9 SWAP8 POP POP POP POP POP POP POP POP JUMP JUMPDEST PUSH0 DUP2 ISZERO ISZERO SWAP1 POP SWAP2 SWAP1 POP JUMP JUMPDEST PUSH2 0x1F2D DUP2 PUSH2 0x1F19 JUMP JUMPDEST DUP3 MSTORE POP POP JUMP JUMPDEST PUSH0 PUSH1 0xE0 DUP3 ADD SWAP1 POP PUSH2 0x1F46 PUSH0 DUP4 ADD DUP11 PUSH2 0x1BC2 JUMP JUMPDEST DUP2 DUP2 SUB PUSH1 0x20 DUP4 ADD MSTORE PUSH2 0x1F58 DUP2 DUP10 PUSH2 0x1D14 JUMP JUMPDEST SWAP1 POP DUP2 DUP2 SUB PUSH1 0x40 DUP4 ADD MSTORE PUSH2 0x1F6C DUP2 DUP9 PUSH2 0x1D14 JUMP JUMPDEST SWAP1 POP PUSH2 0x1F7B PUSH1 0x60 DUP4 ADD DUP8 PUSH2 0x1D4C JUMP JUMPDEST DUP2 DUP2 SUB PUSH1 0x80 DUP4 ADD MSTORE PUSH2 0x1F8D DUP2 DUP7 PUSH2 0x1D14 JUMP JUMPDEST SWAP1 POP PUSH2 0x1F9C PUSH1 0xA0 DUP4 ADD DUP6 PUSH2 0x1BC2 JUMP JUMPDEST PUSH2 0x1FA9 PUSH1 0xC0 DUP4 ADD DUP5 PUSH2 0x1F24 JUMP JUMPDEST SWAP9 SWAP8 POP POP POP POP POP POP POP POP JUMP JUMPDEST PUSH0 PUSH2 0x100 DUP3 ADD SWAP1 POP PUSH2 0x1FC9 PUSH0 DUP4 ADD DUP12 PUSH2 0x1BC2 JUMP JUMPDEST DUP2 DUP2 SUB PUSH1 0x20 DUP4 ADD MSTORE PUSH2 0x1FDB DUP2 DUP11 PUSH2 0x1D14 JUMP JUMPDEST SWAP1 POP DUP2 DUP2 SUB PUSH1 0x40 DUP4 ADD MSTORE PUSH2 0x1FEF DUP2 DUP10 PUSH2 0x1D14 JUMP JUMPDEST SWAP1 POP PUSH2 0x1FFE PUSH1 0x60 DUP4 ADD DUP9 PUSH2 0x1D4C JUMP JUMPDEST PUSH2 0x200B PUSH1 0x80 DUP4 ADD DUP8 PUSH2 0x1BC2 JUMP JUMPDEST PUSH2 0x2018 PUSH1 0xA0 DUP4 ADD DUP7 PUSH2 0x1F24 JUMP JUMPDEST PUSH2 0x2025 PUSH1 0xC0 DUP4 ADD DUP6 PUSH2 0x1BC2 JUMP JUMPDEST DUP2 DUP2 SUB PUSH1 0xE0 DUP4 ADD MSTORE PUSH2 0x2037 DUP2 DUP5 PUSH2 0x1D14 JUMP JUMPDEST SWAP1 POP SWAP10 SWAP9 POP POP POP POP POP POP POP POP POP JUMP JUMPDEST PUSH0 DUP1 PUSH0 DUP1 PUSH0 PUSH1 0xA0 DUP7 DUP9 SUB SLT ISZERO PUSH2 0x205F JUMPI PUSH2 0x205E PUSH2 0x1963 JUMP JUMPDEST JUMPDEST PUSH0 PUSH2 0x206C DUP9 DUP3 DUP10 ADD PUSH2 0x19B1 JUMP JUMPDEST SWAP6 POP POP PUSH1 0x20 DUP7 ADD CALLDATALOAD PUSH8 0xFFFFFFFFFFFFFFFF DUP2 GT ISZERO PUSH2 0x208D JUMPI PUSH2 0x208C PUSH2 0x1967 JUMP JUMPDEST JUMPDEST PUSH2 0x2099 DUP9 DUP3 DUP10 ADD PUSH2 0x1AD4 JUMP JUMPDEST SWAP5 POP POP PUSH1 0x40 DUP7 ADD CALLDATALOAD PUSH8 0xFFFFFFFFFFFFFFFF DUP2 GT ISZERO PUSH2 0x20BA JUMPI PUSH2 0x20B9 PUSH2 0x1967 JUMP JUMPDEST JUMPDEST PUSH2 0x20C6 DUP9 DUP3 DUP10 ADD PUSH2 0x1AD4 JUMP JUMPDEST SWAP4 POP POP PUSH1 0x60 DUP7 ADD CALLDATALOAD PUSH8 0xFFFFFFFFFFFFFFFF DUP2 GT ISZERO PUSH2 0x20E7 JUMPI PUSH2 0x20E6 PUSH2 0x1967 JUMP JUMPDEST JUMPDEST PUSH2 0x20F3 DUP9 DUP3 DUP10 ADD PUSH2 0x1AD4 JUMP JUMPDEST SWAP3 POP POP PUSH1 0x80 DUP7 ADD CALLDATALOAD PUSH8 0xFFFFFFFFFFFFFFFF DUP2 GT ISZERO PUSH2 0x2114 JUMPI PUSH2 0x2113 PUSH2 0x1967 JUMP JUMPDEST JUMPDEST PUSH2 0x2120 DUP9 DUP3 DUP10 ADD PUSH2 0x1AD4 JUMP JUMPDEST SWAP2 POP POP SWAP3 SWAP6 POP SWAP3 SWAP6 SWAP1 SWAP4 POP JUMP JUMPDEST PUSH32 0x596F752068617665206E6F20726967687420746F2070726F7669646520617574 PUSH0 DUP3 ADD MSTORE PUSH32 0x686F72697A6174696F6E20666F7220766F746500000000000000000000000000 PUSH1 0x20 DUP3 ADD MSTORE POP JUMP JUMPDEST PUSH0 PUSH2 0x2187 PUSH1 0x33 DUP4 PUSH2 0x1CF6 JUMP JUMPDEST SWAP2 POP PUSH2 0x2192 DUP3 PUSH2 0x212D JUMP JUMPDEST PUSH1 0x40 DUP3 ADD SWAP1 POP SWAP2 SWAP1 POP JUMP JUMPDEST PUSH0 PUSH1 0x20 DUP3 ADD SWAP1 POP DUP2 DUP2 SUB PUSH0 DUP4 ADD MSTORE PUSH2 0x21B4 DUP2 PUSH2 0x217B JUMP JUMPDEST SWAP1 POP SWAP2 SWAP1 POP JUMP JUMPDEST PUSH32 0x4E487B7100000000000000000000000000000000000000000000000000000000 PUSH0 MSTORE PUSH1 0x22 PUSH1 0x4 MSTORE PUSH1 0x24 PUSH0 REVERT JUMPDEST PUSH0 PUSH1 0x2 DUP3 DIV SWAP1 POP PUSH1 0x1 DUP3 AND DUP1 PUSH2 0x21FF JUMPI PUSH1 0x7F DUP3 AND SWAP2 POP JUMPDEST PUSH1 0x20 DUP3 LT DUP2 SUB PUSH2 0x2212 JUMPI PUSH2 0x2211 PUSH2 0x21BB JUMP JUMPDEST JUMPDEST POP SWAP2 SWAP1 POP JUMP JUMPDEST PUSH0 DUP2 SWAP1 POP DUP2 PUSH0 MSTORE PUSH1 0x20 PUSH0 KECCAK256 SWAP1 POP SWAP2 SWAP1 POP JUMP JUMPDEST PUSH0 PUSH1 0x20 PUSH1 0x1F DUP4 ADD DIV SWAP1 POP SWAP2 SWAP1 POP JUMP JUMPDEST PUSH0 DUP3 DUP3 SHL SWAP1 POP SWAP3 SWAP2 POP POP JUMP JUMPDEST PUSH0 PUSH1 0x8 DUP4 MUL PUSH2 0x2274 PUSH32 0xFFFFFFFFFFFFFFFFFFFFFFFFFFFFFFFFFFFFFFFFFFFFFFFFFFFFFFFFFFFFFFFF DUP3 PUSH2 0x2239 JUMP JUMPDEST PUSH2 0x227E DUP7 DUP4 PUSH2 0x2239 JUMP JUMPDEST SWAP6 POP DUP1 NOT DUP5 AND SWAP4 POP DUP1 DUP7 AND DUP5 OR SWAP3 POP POP POP SWAP4 SWAP3 POP POP POP JUMP JUMPDEST PUSH0 DUP2 SWAP1 POP SWAP2 SWAP1 POP JUMP JUMPDEST PUSH0 PUSH2 0x22B9 PUSH2 0x22B4 PUSH2 0x22AF DUP5 PUSH2 0x1BB9 JUMP JUMPDEST PUSH2 0x2296 JUMP JUMPDEST PUSH2 0x1BB9 JUMP JUMPDEST SWAP1 POP SWAP2 SWAP1 POP JUMP JUMPDEST PUSH0 DUP2 SWAP1 POP SWAP2 SWAP1 POP JUMP JUMPDEST PUSH2 0x22D2 DUP4 PUSH2 0x229F JUMP JUMPDEST PUSH2 0x22E6 PUSH2 0x22DE DUP3 PUSH2 0x22C0 JUMP JUMPDEST DUP5 DUP5 SLOAD PUSH2 0x2245 JUMP JUMPDEST DUP3 SSTORE POP POP POP POP JUMP JUMPDEST PUSH0 SWAP1 JUMP JUMPDEST PUSH2 0x22FA PUSH2 0x22EE JUMP JUMPDEST PUSH2 0x2305 DUP2 DUP5 DUP5 PUSH2 0x22C9 JUMP JUMPDEST POP POP POP JUMP JUMPDEST JUMPDEST DUP2 DUP2 LT ISZERO PUSH2 0x2328 JUMPI PUSH2 0x231D PUSH0 DUP3 PUSH2 0x22F2 JUMP JUMPDEST PUSH1 0x1 DUP2 ADD SWAP1 POP PUSH2 0x230B JUMP JUMPDEST POP POP JUMP JUMPDEST PUSH1 0x1F DUP3 GT ISZERO PUSH2 0x236D JUMPI PUSH2 0x233E DUP2 PUSH2 0x2218 JUMP JUMPDEST PUSH2 0x2347 DUP5 PUSH2 0x222A JUMP JUMPDEST DUP2 ADD PUSH1 0x20 DUP6 LT ISZERO PUSH2 0x2356 JUMPI DUP2 SWAP1 POP JUMPDEST PUSH2 0x236A PUSH2 0x2362 DUP6 PUSH2 0x222A JUMP JUMPDEST DUP4 ADD DUP3 PUSH2 0x230A JUMP JUMPDEST POP POP JUMPDEST POP POP POP JUMP JUMPDEST PUSH0 DUP3 DUP3 SHR SWAP1 POP SWAP3 SWAP2 POP POP JUMP JUMPDEST PUSH0 PUSH2 0x238D PUSH0 NOT DUP5 PUSH1 0x8 MUL PUSH2 0x2372 JUMP JUMPDEST NOT DUP1 DUP4 AND SWAP2 POP POP SWAP3 SWAP2 POP POP JUMP JUMPDEST PUSH0 PUSH2 0x23A5 DUP4 DUP4 PUSH2 0x237E JUMP JUMPDEST SWAP2 POP DUP3 PUSH1 0x2 MUL DUP3 OR SWAP1 POP SWAP3 SWAP2 POP POP JUMP JUMPDEST PUSH2 0x23BE DUP3 PUSH2 0x1CEC JUMP JUMPDEST PUSH8 0xFFFFFFFFFFFFFFFF DUP2 GT ISZERO PUSH2 0x23D7 JUMPI PUSH2 0x23D6 PUSH2 0x19DD JUMP JUMPDEST JUMPDEST PUSH2 0x23E1 DUP3 SLOAD PUSH2 0x21E8 JUMP JUMPDEST PUSH2 0x23EC DUP3 DUP3 DUP6 PUSH2 0x232C JUMP JUMPDEST PUSH0 PUSH1 0x20 SWAP1 POP PUSH1 0x1F DUP4 GT PUSH1 0x1 DUP2 EQ PUSH2 0x241D JUMPI PUSH0 DUP5 ISZERO PUSH2 0x240B JUMPI DUP3 DUP8 ADD MLOAD SWAP1 POP JUMPDEST PUSH2 0x2415 DUP6 DUP3 PUSH2 0x239A JUMP JUMPDEST DUP7 SSTORE POP PUSH2 0x247C JUMP JUMPDEST PUSH1 0x1F NOT DUP5 AND PUSH2 0x242B DUP7 PUSH2 0x2218 JUMP JUMPDEST PUSH0 JUMPDEST DUP3 DUP2 LT ISZERO PUSH2 0x2452 JUMPI DUP5 DUP10 ADD MLOAD DUP3 SSTORE PUSH1 0x1 DUP3 ADD SWAP2 POP PUSH1 0x20 DUP6 ADD SWAP5 POP PUSH1 0x20 DUP2 ADD SWAP1 POP PUSH2 0x242D JUMP JUMPDEST DUP7 DUP4 LT ISZERO PUSH2 0x246F JUMPI DUP5 DUP10 ADD MLOAD PUSH2 0x246B PUSH1 0x1F DUP10 AND DUP3 PUSH2 0x237E JUMP JUMPDEST DUP4 SSTORE POP JUMPDEST PUSH1 0x1 PUSH1 0x2 DUP9 MUL ADD DUP9 SSTORE POP POP POP JUMPDEST POP POP POP POP POP POP JUMP JUMPDEST PUSH0 DUP2 SLOAD PUSH2 0x2490 DUP2 PUSH2 0x21E8 JUMP JUMPDEST PUSH2 0x249A DUP2 DUP7 PUSH2 0x1CF6 JUMP JUMPDEST SWAP5 POP PUSH1 0x1 DUP3 AND PUSH0 DUP2 EQ PUSH2 0x24B4 JUMPI PUSH1 0x1 DUP2 EQ PUSH2 0x24CA JUMPI PUSH2 0x24FC JUMP JUMPDEST PUSH1 0xFF NOT DUP4 AND DUP7 MSTORE DUP2 ISZERO ISZERO PUSH1 0x20 MUL DUP7 ADD SWAP4 POP PUSH2 0x24FC JUMP JUMPDEST PUSH2 0x24D3 DUP6 PUSH2 0x2218 JUMP JUMPDEST PUSH0 JUMPDEST DUP4 DUP2 LT ISZERO PUSH2 0x24F4 JUMPI DUP2 SLOAD DUP2 DUP10 ADD MSTORE PUSH1 0x1 DUP3 ADD SWAP2 POP PUSH1 0x20 DUP2 ADD SWAP1 POP PUSH2 0x24D5 JUMP JUMPDEST DUP1 DUP9 ADD SWAP6 POP POP POP JUMPDEST POP POP POP SWAP3 SWAP2 POP POP JUMP JUMPDEST PUSH0 PUSH1 0xE0 DUP3 ADD SWAP1 POP DUP2 DUP2 SUB PUSH0 DUP4 ADD MSTORE PUSH2 0x251D DUP2 DUP11 PUSH2 0x1D14 JUMP JUMPDEST SWAP1 POP DUP2 DUP2 SUB PUSH1 0x20 DUP4 ADD MSTORE PUSH2 0x2531 DUP2 DUP10 PUSH2 0x1D14 JUMP JUMPDEST SWAP1 POP PUSH2 0x2540 PUSH1 0x40 DUP4 ADD DUP9 PUSH2 0x1D4C JUMP JUMPDEST PUSH2 0x254D PUSH1 0x60 DUP4 ADD DUP8 PUSH2 0x1BC2 JUMP JUMPDEST PUSH2 0x255A PUSH1 0x80 DUP4 ADD DUP7 PUSH2 0x1F24 JUMP JUMPDEST PUSH2 0x2567 PUSH1 0xA0 DUP4 ADD DUP6 PUSH2 0x1BC2 JUMP JUMPDEST DUP2 DUP2 SUB PUSH1 0xC0 DUP4 ADD MSTORE PUSH2 0x2579 DUP2 DUP5 PUSH2 0x2484 JUMP JUMPDEST SWAP1 POP SWAP9 SWAP8 POP POP POP POP POP POP POP POP JUMP JUMPDEST PUSH32 0x596F75206861766520616C726561647920766F74656400000000000000000000 PUSH0 DUP3 ADD MSTORE POP JUMP JUMPDEST PUSH0 PUSH2 0x25BB PUSH1 0x16 DUP4 PUSH2 0x1CF6 JUMP JUMPDEST SWAP2 POP PUSH2 0x25C6 DUP3 PUSH2 0x2587 JUMP JUMPDEST PUSH1 0x20 DUP3 ADD SWAP1 POP SWAP2 SWAP1 POP JUMP JUMPDEST PUSH0 PUSH1 0x20 DUP3 ADD SWAP1 POP DUP2 DUP2 SUB PUSH0 DUP4 ADD MSTORE PUSH2 0x25E8 DUP2 PUSH2 0x25AF JUMP JUMPDEST SWAP1 POP SWAP2 SWAP1 POP JUMP JUMPDEST PUSH32 0x596F752068617665206E6F20726967687420746F20766F746500000000000000 PUSH0 DUP3 ADD MSTORE POP JUMP JUMPDEST PUSH0 PUSH2 0x2623 PUSH1 0x19 DUP4 PUSH2 0x1CF6 JUMP JUMPDEST SWAP2 POP PUSH2 0x262E DUP3 PUSH2 0x25EF JUMP JUMPDEST PUSH1 0x20 DUP3 ADD SWAP1 POP SWAP2 SWAP1 POP JUMP JUMPDEST PUSH0 PUSH1 0x20 DUP3 ADD SWAP1 POP DUP2 DUP2 SUB PUSH0 DUP4 ADD MSTORE PUSH2 0x2650 DUP2 PUSH2 0x2617 JUMP JUMPDEST SWAP1 POP SWAP2 SWAP1 POP JUMP JUMPDEST PUSH32 0x4E487B7100000000000000000000000000000000000000000000000000000000 PUSH0 MSTORE PUSH1 0x11 PUSH1 0x4 MSTORE PUSH1 0x24 PUSH0 REVERT JUMPDEST PUSH0 PUSH2 0x268E DUP3 PUSH2 0x1BB9 JUMP JUMPDEST SWAP2 POP PUSH2 0x2699 DUP4 PUSH2 0x1BB9 JUMP JUMPDEST SWAP3 POP DUP3 DUP3 ADD SWAP1 POP DUP1 DUP3 GT ISZERO PUSH2 0x26B1 JUMPI PUSH2 0x26B0 PUSH2 0x2657 JUMP JUMPDEST JUMPDEST SWAP3 SWAP2 POP POP JUMP JUMPDEST PUSH32 0x596F752068617665206E6F20617A7574686F72697A6174696F6E20746F207365 PUSH0 DUP3 ADD MSTORE PUSH32 0x742043616E646964617465000000000000000000000000000000000000000000 PUSH1 0x20 DUP3 ADD MSTORE POP JUMP JUMPDEST PUSH0 PUSH2 0x2711 PUSH1 0x2B DUP4 PUSH2 0x1CF6 JUMP JUMPDEST SWAP2 POP PUSH2 0x271C DUP3 PUSH2 0x26B7 JUMP JUMPDEST PUSH1 0x40 DUP3 ADD SWAP1 POP SWAP2 SWAP1 POP JUMP JUMPDEST PUSH0 PUSH1 0x20 DUP3 ADD SWAP1 POP DUP2 DUP2 SUB PUSH0 DUP4 ADD MSTORE PUSH2 0x273E DUP2 PUSH2 0x2705 JUMP JUMPDEST SWAP1 POP SWAP2 SWAP1 POP JUMP JUMPDEST PUSH0 PUSH1 0xC0 DUP3 ADD SWAP1 POP DUP2 DUP2 SUB PUSH0 DUP4 ADD MSTORE PUSH2 0x275D DUP2 DUP10 PUSH2 0x1D14 JUMP JUMPDEST SWAP1 POP DUP2 DUP2 SUB PUSH1 0x20 DUP4 ADD MSTORE PUSH2 0x2771 DUP2 DUP9 PUSH2 0x1D14 JUMP JUMPDEST SWAP1 POP DUP2 DUP2 SUB PUSH1 0x40 DUP4 ADD MSTORE PUSH2 0x2785 DUP2 DUP8 PUSH2 0x1D14 JUMP JUMPDEST SWAP1 POP PUSH2 0x2794 PUSH1 0x60 DUP4 ADD DUP7 PUSH2 0x1BC2 JUMP JUMPDEST PUSH2 0x27A1 PUSH1 0x80 DUP4 ADD DUP6 PUSH2 0x1D4C JUMP JUMPDEST DUP2 DUP2 SUB PUSH1 0xA0 DUP4 ADD MSTORE PUSH2 0x27B3 DUP2 DUP5 PUSH2 0x2484 JUMP JUMPDEST SWAP1 POP SWAP8 SWAP7 POP POP POP POP POP POP POP JUMP INVALID LOG2 PUSH5 0x6970667358 0x22 SLT KECCAK256 DELEGATECALL 0xB4 0xC8 PUSH13 0x366C1AACF90EDE09E16AC9DD09 0x4F BLOBHASH CALLDATASIZE SWAP15 0x22 SWAP11 PUSH15 0x94FC68CAB188054B64736F6C634300 ADDMOD BYTE STOP CALLER "
		},
		"gasEstimates": {
			"creation": {
				"codeDepositCost": "2046000",
				"executionCost": "26434",
				"totalCost": "2072434"
			},
			"external": {
				"_candidateId()": "2460",
				"_voterId()": "2503",
				"candidateAddress(uint256)": "4967",
				"candidates(address)": "infinite",
				"getCandidate()": "infinite",
				"getCandidateData(address)": "infinite",
				"getCandidateLength()": "2550",
				"getVotedVotersList()": "infinite",
				"getVoterData(address)": "infinite",
				"getVoterLength()": "2486",
				"getVoterList()": "infinite",
				"setCandidate(address,string,string,string,string)": "infinite",
				"vote(address,uint256)": "infinite",
				"votedVoters(uint256)": "4967",
				"voterRight(address,string,string,string)": "infinite",
				"voters(address)": "infinite",
				"votersAddress(uint256)": "4989",
				"votingOrganizer()": "2575"
			}
		},
		"methodIdentifiers": {
			"_candidateId()": "a7388967",
			"_voterId()": "b9be3152",
			"candidateAddress(uint256)": "3a88251a",
			"candidates(address)": "8ab66a90",
			"getCandidate()": "70218b85",
			"getCandidateData(address)": "2a466ac7",
			"getCandidateLength()": "f7522a83",
			"getVotedVotersList()": "13182dce",
			"getVoterData(address)": "8fb4cd80",
			"getVoterLength()": "05ad45a4",
			"getVoterList()": "b28d92ae",
			"setCandidate(address,string,string,string,string)": "c91ec712",
			"vote(address,uint256)": "5f74bbde",
			"votedVoters(uint256)": "7831ffb3",
			"voterRight(address,string,string,string)": "0361419e",
			"voters(address)": "a3ec138d",
			"votersAddress(uint256)": "43242daa",
			"votingOrganizer()": "5cc48aa7"
		}
	},
	"abi": [
		{
			"inputs": [],
			"stateMutability": "nonpayable",
			"type": "constructor"
		},
		{
			"anonymous": false,
			"inputs": [
				{
					"indexed": true,
					"internalType": "uint256",
					"name": "candidateId",
					"type": "uint256"
				},
				{
					"indexed": false,
					"internalType": "string",
					"name": "age",
					"type": "string"
				},
				{
					"indexed": false,
					"internalType": "string",
					"name": "name",
					"type": "string"
				},
				{
					"indexed": false,
					"internalType": "string",
					"name": "image",
					"type": "string"
				},
				{
					"indexed": false,
					"internalType": "uint256",
					"name": "voteCount",
					"type": "uint256"
				},
				{
					"indexed": false,
					"internalType": "address",
					"name": "_address",
					"type": "address"
				},
				{
					"indexed": false,
					"internalType": "string",
					"name": "ipfs",
					"type": "string"
				}
			],
			"name": "CandidateCreate",
			"type": "event"
		},
		{
			"anonymous": false,
			"inputs": [
				{
					"indexed": true,
					"internalType": "uint256",
					"name": "voter_voterId",
					"type": "uint256"
				},
				{
					"indexed": false,
					"internalType": "string",
					"name": "voter_name",
					"type": "string"
				},
				{
					"indexed": false,
					"internalType": "string",
					"name": "voter_image",
					"type": "string"
				},
				{
					"indexed": false,
					"internalType": "address",
					"name": "voter_address",
					"type": "address"
				},
				{
					"indexed": false,
					"internalType": "uint256",
					"name": "voter_allowed",
					"type": "uint256"
				},
				{
					"indexed": false,
					"internalType": "bool",
					"name": "voter_voted",
					"type": "bool"
				},
				{
					"indexed": false,
					"internalType": "uint256",
					"name": "voter_vote",
					"type": "uint256"
				},
				{
					"indexed": false,
					"internalType": "string",
					"name": "voter_ipfs",
					"type": "string"
				}
			],
			"name": "VoterCreated",
			"type": "event"
		},
		{
			"inputs": [],
			"name": "_candidateId",
			"outputs": [
				{
					"internalType": "uint256",
					"name": "_value",
					"type": "uint256"
				}
			],
			"stateMutability": "view",
			"type": "function"
		},
		{
			"inputs": [],
			"name": "_voterId",
			"outputs": [
				{
					"internalType": "uint256",
					"name": "_value",
					"type": "uint256"
				}
			],
			"stateMutability": "view",
			"type": "function"
		},
		{
			"inputs": [
				{
					"internalType": "uint256",
					"name": "",
					"type": "uint256"
				}
			],
			"name": "candidateAddress",
			"outputs": [
				{
					"internalType": "address",
					"name": "",
					"type": "address"
				}
			],
			"stateMutability": "view",
			"type": "function"
		},
		{
			"inputs": [
				{
					"internalType": "address",
					"name": "",
					"type": "address"
				}
			],
			"name": "candidates",
			"outputs": [
				{
					"internalType": "uint256",
					"name": "candidateId",
					"type": "uint256"
				},
				{
					"internalType": "string",
					"name": "age",
					"type": "string"
				},
				{
					"internalType": "string",
					"name": "name",
					"type": "string"
				},
				{
					"internalType": "string",
					"name": "image",
					"type": "string"
				},
				{
					"internalType": "uint256",
					"name": "voteCount",
					"type": "uint256"
				},
				{
					"internalType": "address",
					"name": "_address",
					"type": "address"
				},
				{
					"internalType": "string",
					"name": "ipfs",
					"type": "string"
				}
			],
			"stateMutability": "view",
			"type": "function"
		},
		{
			"inputs": [],
			"name": "getCandidate",
			"outputs": [
				{
					"internalType": "address[]",
					"name": "",
					"type": "address[]"
				}
			],
			"stateMutability": "view",
			"type": "function"
		},
		{
			"inputs": [
				{
					"internalType": "address",
					"name": "_address",
					"type": "address"
				}
			],
			"name": "getCandidateData",
			"outputs": [
				{
					"internalType": "string",
					"name": "",
					"type": "string"
				},
				{
					"internalType": "string",
					"name": "",
					"type": "string"
				},
				{
					"internalType": "uint256",
					"name": "",
					"type": "uint256"
				},
				{
					"internalType": "string",
					"name": "",
					"type": "string"
				},
				{
					"internalType": "uint256",
					"name": "",
					"type": "uint256"
				},
				{
					"internalType": "string",
					"name": "",
					"type": "string"
				},
				{
					"internalType": "address",
					"name": "",
					"type": "address"
				}
			],
			"stateMutability": "view",
			"type": "function"
		},
		{
			"inputs": [],
			"name": "getCandidateLength",
			"outputs": [
				{
					"internalType": "uint256",
					"name": "",
					"type": "uint256"
				}
			],
			"stateMutability": "view",
			"type": "function"
		},
		{
			"inputs": [],
			"name": "getVotedVotersList",
			"outputs": [
				{
					"internalType": "address[]",
					"name": "",
					"type": "address[]"
				}
			],
			"stateMutability": "view",
			"type": "function"
		},
		{
			"inputs": [
				{
					"internalType": "address",
					"name": "_address",
					"type": "address"
				}
			],
			"name": "getVoterData",
			"outputs": [
				{
					"internalType": "uint256",
					"name": "",
					"type": "uint256"
				},
				{
					"internalType": "string",
					"name": "",
					"type": "string"
				},
				{
					"internalType": "string",
					"name": "",
					"type": "string"
				},
				{
					"internalType": "address",
					"name": "",
					"type": "address"
				},
				{
					"internalType": "string",
					"name": "",
					"type": "string"
				},
				{
					"internalType": "uint256",
					"name": "",
					"type": "uint256"
				},
				{
					"internalType": "bool",
					"name": "",
					"type": "bool"
				}
			],
			"stateMutability": "view",
			"type": "function"
		},
		{
			"inputs": [],
			"name": "getVoterLength",
			"outputs": [
				{
					"internalType": "uint256",
					"name": "",
					"type": "uint256"
				}
			],
			"stateMutability": "view",
			"type": "function"
		},
		{
			"inputs": [],
			"name": "getVoterList",
			"outputs": [
				{
					"internalType": "address[]",
					"name": "",
					"type": "address[]"
				}
			],
			"stateMutability": "view",
			"type": "function"
		},
		{
			"inputs": [
				{
					"internalType": "address",
					"name": "_address",
					"type": "address"
				},
				{
					"internalType": "string",
					"name": "_age",
					"type": "string"
				},
				{
					"internalType": "string",
					"name": "_name",
					"type": "string"
				},
				{
					"internalType": "string",
					"name": "_image",
					"type": "string"
				},
				{
					"internalType": "string",
					"name": "_ipfs",
					"type": "string"
				}
			],
			"name": "setCandidate",
			"outputs": [],
			"stateMutability": "nonpayable",
			"type": "function"
		},
		{
			"inputs": [
				{
					"internalType": "address",
					"name": "_candidateAddress",
					"type": "address"
				},
				{
					"internalType": "uint256",
					"name": "_candidateVoteId",
					"type": "uint256"
				}
			],
			"name": "vote",
			"outputs": [],
			"stateMutability": "nonpayable",
			"type": "function"
		},
		{
			"inputs": [
				{
					"internalType": "uint256",
					"name": "",
					"type": "uint256"
				}
			],
			"name": "votedVoters",
			"outputs": [
				{
					"internalType": "address",
					"name": "",
					"type": "address"
				}
			],
			"stateMutability": "view",
			"type": "function"
		},
		{
			"inputs": [
				{
					"internalType": "address",
					"name": "_address",
					"type": "address"
				},
				{
					"internalType": "string",
					"name": "_name",
					"type": "string"
				},
				{
					"internalType": "string",
					"name": "_image",
					"type": "string"
				},
				{
					"internalType": "string",
					"name": "_ipfs",
					"type": "string"
				}
			],
			"name": "voterRight",
			"outputs": [],
			"stateMutability": "nonpayable",
			"type": "function"
		},
		{
			"inputs": [
				{
					"internalType": "address",
					"name": "",
					"type": "address"
				}
			],
			"name": "voters",
			"outputs": [
				{
					"internalType": "uint256",
					"name": "voter_voterId",
					"type": "uint256"
				},
				{
					"internalType": "string",
					"name": "voter_name",
					"type": "string"
				},
				{
					"internalType": "string",
					"name": "voter_image",
					"type": "string"
				},
				{
					"internalType": "address",
					"name": "voter_address",
					"type": "address"
				},
				{
					"internalType": "uint256",
					"name": "voter_allowed",
					"type": "uint256"
				},
				{
					"internalType": "bool",
					"name": "voter_voted",
					"type": "bool"
				},
				{
					"internalType": "uint256",
					"name": "voter_vote",
					"type": "uint256"
				},
				{
					"internalType": "string",
					"name": "voter_ipfs",
					"type": "string"
				}
			],
			"stateMutability": "view",
			"type": "function"
		},
		{
			"inputs": [
				{
					"internalType": "uint256",
					"name": "",
					"type": "uint256"
				}
			],
			"name": "votersAddress",
			"outputs": [
				{
					"internalType": "address",
					"name": "",
					"type": "address"
				}
			],
			"stateMutability": "view",
			"type": "function"
		},
		{
			"inputs": [],
			"name": "votingOrganizer",
			"outputs": [
				{
					"internalType": "address",
					"name": "",
					"type": "address"
				}
			],
			"stateMutability": "view",
			"type": "function"
		}
	]
}