{
	"data": {
		"bytecode": {
			"linkReferences": {},
			"object": "60806040527fffffffffffffffffffffffffffffffffffffffffffffffffffffffffffffffff600055600060015534801561003957600080fd5b5060dd806100486000396000f3fe6080604052348015600f57600080fd5b506004361060325760003560e01c80630dbe671f1460375780634df7e3d0146051575b600080fd5b603d606b565b604051604891906084565b60405180910390f35b60576071565b604051606291906084565b60405180910390f35b60005481565b60015481565b607e81609d565b82525050565b6000602082019050609760008301846077565b92915050565b600081905091905056fea264697066735822122044b9bb39d9ff5d46bef14b159f64af351cf4d1490ee2f94e8142461d1126b93564736f6c63430008070033",
			"opcodes": "PUSH1 0x80 PUSH1 0x40 MSTORE PUSH32 0xFFFFFFFFFFFFFFFFFFFFFFFFFFFFFFFFFFFFFFFFFFFFFFFFFFFFFFFFFFFFFFFF PUSH1 0x0 SSTORE PUSH1 0x0 PUSH1 0x1 SSTORE CALLVALUE DUP1 ISZERO PUSH2 0x39 JUMPI PUSH1 0x0 DUP1 REVERT JUMPDEST POP PUSH1 0xDD DUP1 PUSH2 0x48 PUSH1 0x0 CODECOPY PUSH1 0x0 RETURN INVALID PUSH1 0x80 PUSH1 0x40 MSTORE CALLVALUE DUP1 ISZERO PUSH1 0xF JUMPI PUSH1 0x0 DUP1 REVERT JUMPDEST POP PUSH1 0x4 CALLDATASIZE LT PUSH1 0x32 JUMPI PUSH1 0x0 CALLDATALOAD PUSH1 0xE0 SHR DUP1 PUSH4 0xDBE671F EQ PUSH1 0x37 JUMPI DUP1 PUSH4 0x4DF7E3D0 EQ PUSH1 0x51 JUMPI JUMPDEST PUSH1 0x0 DUP1 REVERT JUMPDEST PUSH1 0x3D PUSH1 0x6B JUMP JUMPDEST PUSH1 0x40 MLOAD PUSH1 0x48 SWAP2 SWAP1 PUSH1 0x84 JUMP JUMPDEST PUSH1 0x40 MLOAD DUP1 SWAP2 SUB SWAP1 RETURN JUMPDEST PUSH1 0x57 PUSH1 0x71 JUMP JUMPDEST PUSH1 0x40 MLOAD PUSH1 0x62 SWAP2 SWAP1 PUSH1 0x84 JUMP JUMPDEST PUSH1 0x40 MLOAD DUP1 SWAP2 SUB SWAP1 RETURN JUMPDEST PUSH1 0x0 SLOAD DUP2 JUMP JUMPDEST PUSH1 0x1 SLOAD DUP2 JUMP JUMPDEST PUSH1 0x7E DUP2 PUSH1 0x9D JUMP JUMPDEST DUP3 MSTORE POP POP JUMP JUMPDEST PUSH1 0x0 PUSH1 0x20 DUP3 ADD SWAP1 POP PUSH1 0x97 PUSH1 0x0 DUP4 ADD DUP5 PUSH1 0x77 JUMP JUMPDEST SWAP3 SWAP2 POP POP JUMP JUMPDEST PUSH1 0x0 DUP2 SWAP1 POP SWAP2 SWAP1 POP JUMP INVALID LOG2 PUSH5 0x6970667358 0x22 SLT KECCAK256 DIFFICULTY 0xB9 0xBB CODECOPY 0xD9 SELFDESTRUCT 0x5D CHAINID 0xBE CALL 0x4B ISZERO SWAP16 PUSH5 0xAF351CF4D1 0x49 0xE 0xE2 0xF9 0x4E DUP2 TIMESTAMP CHAINID SAR GT 0x26 0xB9 CALLDATALOAD PUSH5 0x736F6C6343 STOP ADDMOD SMOD STOP CALLER "
		},
		"gasEstimates": {
			"creation": {
				"codeDepositCost": "44200",
				"executionCost": "27205",
				"totalCost": "71405"
			},
			"external": {
				"a()": "2407",
				"b()": "2429"
			}
		},
		"methodIdentifiers": {
			"a()": "0dbe671f",
			"b()": "4df7e3d0"
		}
	},
	"abi": [
		{
			"inputs": [],
			"name": "a",
			"outputs": [
				{
					"internalType": "uint256",
					"name": "",
					"type": "uint256"
				}
			],
			"stateMutability": "view",
			"type": "function"
		},
		{
			"inputs": [],
			"name": "b",
			"outputs": [
				{
					"internalType": "uint256",
					"name": "",
					"type": "uint256"
				}
			],
			"stateMutability": "view",
			"type": "function"
		}
	]
}